:100000000C9463000C948B000C948B000C946F0682
:100010000C946F060C946F060C948B000C9448069D
:100020000C948B000C948B000C948B000C948B0024
:100030000C948B000C948B000C948B000C948B0014
:100040000C94D0040C948B000C94F7020C94D10205
:100050000C948B000C948B000C948B000C948B00F4
:100060000C941A050C948B0000000008000201009B
:100070000003040700000000000000000000000072
:10008000250028002B0000000000240027002A0083
:1000900000000000230026002900040404040404D6
:1000A0000404020202020202030303030303010227
:1000B00004081020408001020408102001020408F6
:1000C0001020A912770B11241FBECFEFD8E0DEBF9E
:1000D000CDBF12E0A0E0B1E0E2E6F3E302C005909C
:1000E0000D92A83CB107D9F726E0A8ECB2E001C018
:1000F0001D92A633B207E1F710E0C2E6D0E004C0DB
:100100002197FE010E949A14C136D107C9F70E94B7
:100110009F0B0C94A4190C940000CF92DF92EF92E5
:10012000FF920F931F93CF93DF936C017A018B01A2
:10013000C0E0D0E0CE15DF0589F0D8016D918D01CA
:10014000D601ED91FC910190F081E02DC601099559
:10015000892B11F47E0102C02196ECCFC701DF91FB
:10016000CF911F910F91FF90EF90DF90CF90089566
:10017000FC01918D828D981759F0828DDF01A80FB7
:10018000B11D5D968C91928D9F5F928F90E0089546
:100190008FEF9FEF0895FC01918D828D981731F0BC
:1001A000828DE80FF11D858D90E008958FEF9FEF10
:1001B0000895FC01918D828D981B892F90E0089500
:1001C0008FE794E00E94D90021E0892B09F420E018
:1001D000822F0895FC01848DDF01A80FB11DA35E5D
:1001E000BE4F2C91848D90E001968F739927848F58
:1001F000A689B7892C93A089B1898C9180648C934E
:10020000938D848D981306C00288F389E02D808138
:100210008F7D80830895EF92FF920F931F93CF936A
:10022000DF93EC0181E0888F9B8D8C8D981305C046
:10023000E889F989808185FD24C0F62E0B8D10E0B8
:100240000F5F1F4F0F731127E02E8C8DE8120CC02B
:100250000FB607FCFACFE889F989808185FFF5CFD1
:10026000CE010E94EA00F1CF8B8DFE01E80FF11D57
:10027000E35EFE4FF0820B8FEA89FB89808180620A
:1002800007C0EE89FF896083E889F98980818064ED
:10029000808381E090E0DF91CF911F910F91FF90DB
:1002A000EF900895CF93DF93EC01888D8823C9F0F8
:1002B000EA89FB89808185FD05C0A889B9898C916F
:1002C00086FD0FC00FB607FCF5CF808185FFF2CF0A
:1002D000A889B9898C9185FFEDCFCE010E94EA00F3
:1002E000E7CFDF91CF91089585ED8093BC00809199
:1002F000BC0084FDFCCF10928903089540916303F4
:10030000262F30E0240F311D21323105DCF42091FD
:1003100089032430C9F4FC0180E090E0861758F48A
:10032000309163032191DC01AF5BBC4FA30FB11D82
:100330002C930196F3CF80916303680F609363035E
:1003400080E0089581E0089582E0089508958FEF98
:100350009FEF08958FEF9FEF08958091400390E005
:100360009195819591090895CF93DF9300D0CDB7F2
:10037000DEB7CB01642F49835A830E947E014981F5
:10038000842F5A81952F0F900F90DF91CF91089570
:10039000CF93DF931F92CDB7DEB7698361E0CE01C3
:1003A00001960E947E0181E090E00F90DF91CF9155
:1003B00008952091BA033091BB032817390771F4CF
:1003C0009091B8038091B903981741F0E091B80378
:1003D000F0E0E250FD4F808190E008958FEF9FEFB5
:1003E000089508951F93CF93DF93DC015C962D91C0
:1003F0003C915D972115310539F481E090E0139629
:100400009C938E9312973DC05196ED91FC9152971B
:1004100050969C915097892F80951FB75E964C916E
:100420005E9741FB772770F941FD6095F894408114
:10043000772311F0492B01C048234083E90121971C
:10044000F1F748E0508160FF02C0592B01C05823EA
:100450005083E9012197F1F76695415099F7772389
:1004600021F090818923808303C08081982B908321
:100470001FBF5C968D919C915D970197F1F721E0EC
:1004800030E0C901DF91CF911F9108952091BA0307
:100490003091BB032817390771F48091B90320917B
:1004A000B80390E0805C9F4F821B910960E470E08C
:1004B0000E945014089580E090E008952091BA03BE
:1004C0003091BB0328173907B9F49091B803809194
:1004D000B903981789F0E091B803F0E0E250FD4FBE
:1004E00080812091B80330E02F5F3F4F2F73332777
:1004F0002093B80390E008958FEF9FEF08950F9336
:100500001F93CF93DF93EC0188819981009729F0A5
:100510002A813B812617370788F48B016F5F7F4F55
:100520000E940817009761F0998388831B830A83D0
:100530002C813D81232B11F4FC01108281E001C04C
:1005400080E0DF91CF911F910F910895EF92FF927C
:100550000F931F93CF93DF93EC017B018A01BA01C4
:100560000E947F022881398181110DC0211531053A
:1005700019F0C9010E947016198218821D821C820E
:100580001B821A8206C01D830C83B701C9010E9419
:10059000E217CE01DF91CF911F910F91FF90EF9065
:1005A00008951F920F920FB60F9211242F933F932D
:1005B0004F935F936F937F938F939F93AF93BF936B
:1005C000EF93FF938FE794E00E94EA00FF91EF9191
:1005D000BF91AF919F918F917F916F915F914F915B
:1005E0003F912F910F900FBE0F901F9018951F9263
:1005F0000F920FB60F9211242F938F939F93EF9327
:10060000FF93E0918F04F09190048081E091950434
:10061000F091960482FD11C09081809198048F5FC3
:1006200020919904821751F0E0919804F0E0E1588C
:10063000FB4F958F8093980401C08081FF91EF91CB
:100640009F918F912F910F900FBE0F901F90189533
:1006500090E0FC01E859FF4F3491FC01E255FF4F57
:100660002491FC01E656FF4FE491EE2309F43BC0D0
:10067000332339F1333091F038F43130A9F032308E
:1006800001F584B58F7D12C0373091F03830A1F07C
:100690003430B9F4809180008F7D03C08091800058
:1006A0008F77809380000DC084B58F7784BD09C09B
:1006B0008091B0008F7703C08091B0008F7D8093D0
:1006C000B000F0E0EE0FFF1FE458FF4FA591B4918A
:1006D0008FB7F894EC91611103C020952E2301C0CF
:1006E0002E2B2C938FBF08953FB7F8948091B403BD
:1006F0009091B503A091B603B091B70326B5A89B1E
:1007000005C02F3F19F00196A11DB11D3FBFBA2FA3
:10071000A92F982F8827820F911DA11DB11DBC0103
:10072000CD0142E0660F771F881F991F4A95D1F7C8
:1007300008958F929F92AF92BF92CF92DF92EF92E5
:10074000FF926B017C010E9474034B015C01C11498
:10075000D104E104F104F1F00E947403DC01CB0147
:1007600088199909AA09BB09883E9340A105B105DA
:1007700070F321E0C21AD108E108F10888EE880E72
:1007800083E0981EA11CB11CC114D104E104F10442
:1007900019F7DDCFFF90EF90DF90CF90BF90AF9033
:1007A0009F908F900895DF92EF92FF920F931F9387
:1007B000CF93DF9302E010E08FE794E00E94D9002E
:1007C000892B09F4DFC080912C0490912D04892B92
:1007D00009F0D8C0C0E0D0E02FB7F8948091B00302
:1007E0009091B103A091B203B091B3032FBF809356
:1007F000870490938804A0938904B0938A04E091BD
:100800007F04F09180040680F781E02D8FE794E06B
:10081000099597FD0BC0FE01E85CFE4F2081022E7A
:10082000000C330B8217930731F559C02FB7F8949A
:100830008091B0039091B103A091B203B091B30342
:100840002FBF409187045091880460918904709172
:100850008A04841B950BA60BB70B4091830450911F
:100860008404609185047091860484179507A60717
:10087000B70728F2A1CF209709F4AECF69E371E062
:100880009E0121503109F901E85CFE4F4081042EA0
:10089000000C550B84179507F1F42115310509F467
:1008A0009BCFE8E3F1E040E050E0D1907B01E40E23
:1008B000F51ED701FC90DF1441F04217530709F4ED
:1008C0008BCF6F5F7F4FE901DBCF4F5F5F4F4217E9
:1008D000530758F3F2CF2115310599F77BCF2196B5
:1008E000C430D10509F078CFD0930101C093000145
:1008F00061E08DE00E94280368EC70E080E090E009
:100900000E94990360E08DE00E94280368EC70E08B
:1009100080E090E00E9499038FE794E00E94D90064
:10092000892B09F449CF8FE794E00E94B800209109
:100930002C0430912D04232B79F420910001309167
:100940000101A9014F5F5F4F5093010140930001E6
:10095000F901E454FC4F8083823229F410932D0472
:1009600000932C04D9CF833229F410922D041092D5
:100970002C04D2CF8A3281F681E090E090932D044E
:1009800080932C04DF91CF911F910F91FF90EF90F6
:10099000DF9008950E94E00081110C94D303089524
:1009A0001F920F920FB60F9211242F933F938F93A4
:1009B0009F93AF93BF938091B0039091B103A091A7
:1009C000B203B091B3033091AF0323E0230F2D376F
:1009D00020F40196A11DB11D05C026E8230F029643
:1009E000A11DB11D2093AF038093B0039093B10379
:1009F000A093B203B093B3038091B4039091B50375
:100A0000A091B603B091B7030196A11DB11D8093CB
:100A1000B4039093B503A093B603B093B703BF910B
:100A2000AF919F918F913F912F910F900FBE0F909B
:100A30001F9018951F920F920FB60F9211242F93AB
:100A40003F934F935F936F937F938F939F93AF9356
:100A5000BF93EF93FF938091B900887F803609F4AC
:100A60009CC068F5883209F45BC090F4803109F4C9
:100A700054C038F4882309F4F6C0883009F44DC016
:100A8000F6C0883109F44CC0803209F45DC0EFC073
:100A9000803409F468C048F4803309F455C08833C1
:100AA00009F0E5C080938803D8C0803509F44FC0B1
:100AB000883509F45DC0883409F0D9C0D6C08839BA
:100AC00009F4C7C0A8F4883709F467C038F4883639
:100AD00009F463C0803709F460C0C9C0883809F4DC
:100AE000B8C0803909F45FC0803809F0C0C05BC06D
:100AF000803B09F486C038F4803A09F466C0883A2D
:100B000009F47FC0B4C0803C09F4A7C0883C09F454
:100B1000A4C0883B09F48AC0AAC08091AE0310C06B
:100B20009091AD038091AC03981770F5E091AD03FF
:100B300081E08E0F8093AD03F0E0E457FC4F80819D
:100B40008093BB0085EC86C0809388038EC0E091C3
:100B5000AD0381E08E0F8093AD038091BB00F0E088
:100B6000E457FC4F80839091AD038091AC036EC03D
:100B7000E091AD0381E08E0F8093AD038091BB00C7
:100B8000F0E0E457FC4F808380918B0381116DC0AE
:100B900081E080938A0384EA61C083E080938903C3
:100BA00010928703CFCF80918703803208F051C025
:100BB000E091870381E08E0F809387038091BB00D3
:100BC000F0E0E959FC4F8083BDCF85EC8093BC00F9
:100BD0001092890380918703803230F4E09187037B
:100BE000F0E0E959FC4F10826091870370E0E091DA
:100BF0006503F091660387E693E0099510928703F9
:100C000036C084E0809389031092640310926303DA
:100C1000E0916103F0916203099580916303811172
:100C200005C081E08093630310924103E091640367
:100C300081E08E0F80936403F0E0EF5BFC4F8081D6
:100C40008093BB009091640380916303981708F42C
:100C500079CF85E88093BC000AC085EC8093BC0006
:100C60001092890304C0109288030E947401FF91BE
:100C7000EF91BF91AF919F918F917F916F915F9114
:100C80004F913F912F910F900FBE0F901F9018958D
:100C90001F920F920FB60F9211242F933F934F93F1
:100CA0005F936F937F938F939F93AF93BF93EF93D4
:100CB000FF93E0913E03F0913F030995FF91EF917F
:100CC000BF91AF919F918F917F916F915F914F9164
:100CD0003F912F910F900FBE0F901F9018951F926C
:100CE0000F920FB60F9211242F933F934F935F9360
:100CF0006F937F938F939F93AF93BF93EF93FF93E4
:100D0000E091BA03F091BB03309709F451C0968D7E
:100D1000A685B785858591FF04C09C91892329F418
:100D200047C09C91892309F043C0A389B4899C9151
:100D30008589809589238C93868997890197F1F716
:100D4000608D718DA685B785558538E020E0CB0193
:100D50000197F1F7822F90E095958795282F4C9178
:100D6000452309F02068315091F7868D81FD20954B
:100D70008091B90390E001968F7399273091B80361
:100D8000381749F0A091B903B0E0A250BD4F2C93A1
:100D90008093B90303C0868D8160868F828D938D89
:100DA0000197F1F7A389B4899C918589892B8C934C
:100DB000FF91EF91BF91AF919F918F917F916F9133
:100DC0005F914F913F912F910F900FBE0F901F9009
:100DD00018950C945F190C9457194F925F926F926B
:100DE0007F92AF92BF92CF92DF92EF92FF920F93DA
:100DF0001F93CF93DF93CEECD2E00E945A098C016F
:100E0000BC0180E090E00E9438186093FA02709371
:100E1000FB028093FC029093FD022091DC058091FF
:100E2000E4053091DE059091DF05E32FF92FE80FFF
:100E3000F11DE80FF11D80819181A801481B590B1C
:100E4000052E000C660B770B8091E5059091E60569
:100E5000A091E705B091E805480F591F6A1F7B1F55
:100E60004093E5055093E6056093E7057093E80528
:100E7000118300838091E405E091E205F091E305A0
:100E8000E80FF11D808181110EC021508091E40591
:100E9000E091E205F091E305E80FF11D80818217F2
:100EA00008F465C055C010E09FEF980FF090DE0584
:100EB0000091DF05E091E4056091E0057091E105A6
:100EC000492F50E0DB01A40FB51F3C91AF2DB02F8F
:100ED000AE0FB11DAE0FB11DEF2DF02FE30FF11DC1
:100EE000E30FF11D0D90BC91A02D0190F081E02D3C
:100EF000AE17BF07CCF5FB01E80FF11D3083E09181
:100F0000E005F091E105E40FF51F8081E091E20535
:100F1000F091E305E80FF11D80818F5F8083809160
:100F2000E4056091E0057091E105FB01E40FF51F18
:100F300080838091E405E091E205F091E305E80FFC
:100F4000F11D808181508083892F11E09111ACCFF8
:100F50008091E4058F5F8093E4059091DC0589130F
:100F60005BC01092E40558C01111F2CF8ECF90E013
:100F700030E08217930764F7F090DE050091DF05FB
:100F8000E091E4056091E0057091E105AC014F5FEF
:100F90005F4FDB01A40FB51F1C91AF2DB02FAE0F1B
:100FA000B11DAE0FB11DEF2DF02FE10FF11DE10FBF
:100FB000F11D0D90BC91A02D0190F081E02DEA175C
:100FC000FB0734F6FB01E80FF91F1083E091E00501
:100FD000F091E105E40FF51F8081E091E205F091C9
:100FE000E305E80FF11D8081815080838091E40545
:100FF000E091E005F091E105E40FF51F8083809119
:10100000E405E091E205F091E305E80FF11D808130
:101010008F5F8083CA01ADCF8091DD05E091E0054F
:10102000F091E105E80FF11D80812091DE0590919E
:10103000DF05E22FF92FE80FF11DE80FF11D6081A8
:101040007181072E000C880B990B0E943A1860934F
:10105000F6027093F7028093F8029093F90220E071
:1010600030E044E652E40E940D157B018C01CB0177
:10107000D8018093260490932704A0932804B0936A
:101080002904B701C8010E947F156993799322E072
:10109000C63FD20709F0B1CEB701C8010EEC12E08D
:1010A000E12CF12CE114F10419F0C0E0D0E026C0ED
:1010B000F801A080B1803EECC32E32E0D32EC0E018
:1010C000D0E025010B2C000C66087708F601219171
:1010D00031916F01A216B30641F42196C301B2010A
:1010E0000E943A18CF30D10534F4F6EFCF16F2E073
:1010F000DF0661F703C0EE24E394F12C0E5F1F4F6F
:1011000022E0063F120771F6D0932B04C0932A0405
:101110008B019C010093260410932704209328043C
:1011200030932904F092CD02E092CC02DF91CF916E
:101130001F910F91FF90EF90DF90CF90BF90AF90F5
:101140007F906F905F904F900895CF92DF92EF92D3
:10115000FF920F931F93CF936B017C01CB010E94F1
:10116000EB06182FC60101960E94EB06C82FC60198
:1011700002960E94EB06082FC60103960E94EB061A
:101180004C2F50E060E070E0762F652F542F4427FD
:10119000410F511D611D711D10E020E030E09801EC
:1011A00011270027400F511F621F731F90E0A0E01E
:1011B000B0E0B82FAA27992788278A019B01080F3A
:1011C000191F2A1F3B1FC901B801CF911F910F9111
:1011D000FF90EF90DF90CF9008958DE391E00E9413
:1011E000280A68EC70E080E090E00E9499036DE0CE
:1011F0008FE794E00E940B0164EF71E080E090E0E3
:101200000E9499038FE491E00E94280A68EC70E044
:1012100080E090E00E9499036DE08FE794E00E94E7
:101220000B0164EF71E080E090E00E94990368ECAC
:1012300070E080E090E00E94A50870932504609320
:10124000240464E670E080E090E00E94A5086093CA
:1012500020047093210480932204909323040C941F
:101260002A0ACF92DF92EF92FF92CF93DF93EC01A5
:101270006A017B01642F0E94E90699278F2D7E2D3C
:101280006D2DCE0101960E94E906B70188279927A6
:10129000CE0102960E94E9066F2D772788279927AD
:1012A000CE010396DF91CF91FF90EF90DF90CF902A
:1012B0000C94E9060F931F93E091F305F091F40568
:1012C00090818091ED05892B8083E091EF05F0916D
:1012D000F00590818091ED058095892380838BE0D6
:1012E00090E00197F1F7E091EF05F091F005908122
:1012F0008091ED05892B808383E290E00197F1F7DF
:10130000E091EF05F091F00590818091ED058095D9
:1013100089238083E091F305F091F4059081809119
:10132000ED05809589238083E091F105F091F20528
:1013300090818091EE05892309F073C00E947403A7
:101340002091F5053091F605890120E030E008553F
:10135000194E2F4F3F4FDC01CB01800F911FA21F71
:10136000B31F8093F7059093F805A093F905B09308
:10137000FA05E091F105F091F20590818091EE057A
:10138000892381F40E9474030091F7051091F805F8
:101390002091F9053091FA05061717072807390734
:1013A00040F73FC00E9474032091F5053091F60587
:1013B000DC01CB01820F931FA11DB11D8093F705A6
:1013C0009093F805A093F905B093FA05E091F10523
:1013D000F091F20590818091EE05892381F00E94C1
:1013E00074030091F7051091F8052091F9053091EB
:1013F000FA05061717072807390740F712C00E9499
:1014000074032091F5053091F6052550310940917E
:10141000F7055091F805241B350BC901860F971F5E
:1014200002C080E090E01F910F910895009769F04D
:10143000FC0101900020E9F73197AF01481B590BDF
:10144000BC018FE794E00C948D0080E090E008955B
:101450000C94160A40E050E06AEB71E08BEF95E0E7
:101460000E94A6028BEF95E00895E0917F04F09131
:1014700080040190F081E02D682F8FE794E00994BB
:101480008F929F92AF92BF920F931F93CF93DF9350
:10149000CDB7DEB7A1970FB6F894DEBF0FBECDBFB4
:1014A00019A2423008F44AE08E010F5D1F4F842ECE
:1014B000912CA12CB12CA50194010E946414E62F5B
:1014C000B901CA0101501109EA3014F4E05D01C00C
:1014D000E95CD801EC93232B242B252B61F7C80161
:1014E0000E94160AA1960FB6F894DEBF0FBECDBFBC
:1014F000DF91CF911F910F91BF90AF909F908F90F0
:1015000008950F931F93CF93DF9300D0CDB7DEB72D
:1015100089831A820091FF05109100060F5F1F4F0B
:10152000B8018BEF95E00E947F028823A1F0209103
:10153000FB053091FC058091FF0590910006BE01EE
:101540006F5F7F4F820F931F0E94E2171093000678
:101550000093FF0581E00F900F90DF91CF911F91D5
:101560000F9108958F929F92AF92BF92CF92DF9288
:10157000EF92FF92CF93DF936B017C019B01AC0153
:101580000E94BA15882319F08CEB92E027C046011F
:101590005701E894B7F82FEF3FEF4FE75FE7C5013A
:1015A000B4010E94BA1581110DC02FEF3FEF4FE734
:1015B0005FE7C501B4010E94331818161CF480ECD3
:1015C00092E00CC02FEF3FEF4FE75FE4C701B60199
:1015D0000E94B515181674F484EC92E0DF91CF9157
:1015E000FF90EF90DF90CF90BF90AF909F908F9043
:1015F0000C94160A2FEF3FEF4FE75FECC701B601DF
:101600000E94331887FDE8CF20E030E0A901C70130
:10161000B6010E94331887FF09C08DE20E94350A87
:10162000EC01F7FAF094F7F8F09402C0C0E0D0E0D3
:101630002AE037ED43EA5BE3C701B6010E94A1143B
:101640004B015C010E9486156B017C010E943818D9
:101650009B01AC01C501B4010E94A0144B015C01C7
:101660004AE0C701B6010E94400AC80FD91F82E5AF
:1016700092E00E94160AC80FD91F20E030E040E235
:1016800051E4C501B4010E9499184B015C010E940C
:1016900086156B01E12CF12C4AE0C701B6010E94CE
:1016A000400AC80FD91FC701B6010E9438189B0114
:1016B000AC01C501B4010E94A01420E030E040E27A
:1016C00051E40E9499180E94861580E090E04AE05B
:1016D0000E94400A8C0F9D1FDF91CF91FF90EF90E9
:1016E000DF90CF90BF90AF909F908F9008958091A2
:1016F000FB059091FC050E94701680910106909167
:1017000002060E9470168CE291E090930806809386
:1017100007068091BA039091BB038750964071F4FD
:10172000E0911A06F0911B06908180911C0680952D
:10173000892380831092BB031092BA030895CF933C
:10174000DF9300D000D0CDB7DEB7789484B5826047
:1017500084BD84B5816084BD85B5826085BD85B555
:10176000816085BD80916E00816080936E001092D3
:10177000810080918100826080938100809181004E
:1017800081608093810080918000816080938000DF
:101790008091B10084608093B1008091B00081603D
:1017A0008093B00080917A00846080937A00809169
:1017B0007A00826080937A0080917A0081608093C1
:1017C0007A0080917A00806880937A001092C1003C
:1017D00081E090E00E94EB0690E090936A04809391
:1017E000690468EC70E080E090E00E94A5087093C6
:1017F00025046093240460ED77E080E090E00E948F
:101800009903E0918F04F091900482E08083E0914D
:101810008B04F0918C041082E0918D04F0918E0481
:101820008FEC808310929704E0919304F0919404DC
:1018300086E08083E0919104F09192048081806140
:101840008083E0919104F09192048081886080838C
:10185000E0919104F0919204808180688083E0910E
:101860009104F091920480818F7D808310922206F2
:10187000109221061092200610921F0610921E064A
:1018800010921D068DE991E0909324068093230623
:1018900090911306963108F057C02DEB30E030934D
:1018A0001E0620931D062BE931E03093200620937D
:1018B0001F062CE231E0309322062093210620916E
:1018C0006800983050F031E09E3008F430E081E05C
:1018D00001C0880F3A95EAF701C084E0822B80931B
:1018E0006800983038F09E3040F0963148F020E0A3
:1018F00030E008C02DE630E005C02BE630E002C045
:101900002CE630E030931B0620931A06983030F412
:1019100081E001C0880F9A95EAF70EC0292F30E0C8
:101920009E3018F42850310902C02E50310981E050
:1019300001C0880F2A95EAF780931C068091230640
:10194000909124060197F1F780912106909122064B
:10195000892B49F1E091BA03F091BB0386E0E730AF
:10196000F80709F1309739F0A389B4899C918589EA
:10197000809589238C93809125068E7F8093250600
:101980001092B9031092B80387E096E09093BB03DE
:101990008093BA03E0911A06F0911B069081809122
:1019A0001C06892B808360ED77E080E090E00E9448
:1019B000990360ED77E080E090E00E94990389E56B
:1019C00091E00E94280A68EC70E080E090E00E94BC
:1019D00099036DE08FE794E00E940B0164EF71E0E2
:1019E00080E090E00E9499038DE391E00E94280A34
:1019F00064EF71E080E090E00E9499036DE08FE772
:101A000094E00E940B0164EF71E080E090E00E949E
:101A100099038FE491E00E94280A64EF71E080E06E
:101A200090E00E9499036DE08FE794E00E940B0123
:101A300068EE73E080E090E00E9499038BE280936F
:101A4000BC0382E38093BD0383E38093BE0384E3FE
:101A50008093BF0384E090E09093010180930001A4
:101A600004E010E022242394312C29E3822E912CCF
:101A7000A12CB12C80912C0490912D04019709F098
:101A800038C4ECEBF3E08AE5E82E84E0F82ED701C9
:101A900081918D9383E0EA3CF807D1F7ABECB3E09A
:101AA000E0E3F4E08D9181938A3221F084E0E8351F
:101AB000F807C1F748E050E06EE571E080E394E09C
:101AC0000E94E917892B09F010C10E94ED0887E6F2
:101AD00091E00E94280AF70181917F010E94350A56
:101AE000F8E6EF16F4E0FF06B1F78FE691E00E940A
:101AF000280A68EC70E080E090E00E9499036DE0B5
:101B00008FE794E00E940B0164EF71E080E090E0C9
:101B10000E94990381E791E00E94280A0E94ED0645
:101B200010922B0410922A04C0902604D09027040F
:101B3000E0902804F090290420E030E0A901C701DA
:101B4000B6010E9433188111C6C00E945A09BC0117
:101B500080E090E0A50194010E946414CA01B901DB
:101B60000E943818609326047093270480932804F9
:101B70009093290480912A0490912B0401969093CC
:101B80002B0480932A040B970CF496C0C090240475
:101B9000D09025040D2C000CEE08FF08C701B601FB
:101BA0000E943A182091260430912704409128047D
:101BB000509129040E94A0142B013C01609326043B
:101BC0007093270480932804909329046091200443
:101BD0007091210480912204909123040E9438186E
:101BE0009B01AC01C301B2010E9499180E948615A5
:101BF0006093790470937A0480937B0490937C04BF
:101C0000A70196010E946414CA01B9010E94381804
:101C10006B017C0160937504709376048093770464
:101C20009093780420E030E048EC52E40E94991848
:101C30000E948615609371047093720480937304FC
:101C40009093740428EE33E040E050E00E94641466
:101C5000CA01B9010E94381860936D0470936E0434
:101C600080936F0490937004C701B6010E94B20A7A
:101C700080E891E00E94280A88E891E00E94280A02
:101C800060916D0470916E0480916F049091700466
:101C90000E94B20A8CE891E00E94280A82E592E054
:101CA0000E94280A6AE18FE794E00E940B0164EF2A
:101CB00071E080E090E0F4C262E370E080E090E0E8
:101CC0000E9499038AE991E00E94160A88EB91E04C
:101CD0000E94160A29CF20E030E0A901C701B60111
:101CE0000E94331887FD31CF51CF45E050E06BEBB8
:101CF00071E080E394E00E94E917892B29F5809137
:101D000036040E94810A809137040E94810A8091E2
:101D100038040E94810A8091FB059091FC05009790
:101D200019F00E94F71703C060E070E0CB017093D8
:101D30006C0460936B046336710508F0C8C280E0E0
:101D400090E00E94E906C3C246E050E061EC71E019
:101D500080E394E00E94E917892B69F5B6E3EB2E46
:101D6000B4E0FB2EF70181917F018A3219F00E94C5
:101D7000810AF8CF8091FB059091FC05009729F02E
:101D80000E94F7176B017C0103C0C12CD12C760196
:101D9000D0926C04C0926B040E942A0AF5EFCF1611
:101DA000F1E0DF0608F093C2A601DD0C660B770BAD
:101DB00088EC90E040C046E050E068EC71E080E3E1
:101DC00094E00E94E917892BE9F5A6E3EA2EA4E046
:101DD000FA2EF70181917F018A3219F00E94810A5F
:101DE000F8CF8091FB059091FC05009729F00E94A7
:101DF000F717AB01BC0103C040E050E0BA014093CB
:101E0000790450937A0460937B0470937C04498333
:101E10005A836B837C830E942A0A49815A816B8191
:101E20007C81413AF6E85F07F1E06F07710508F041
:101E30004EC284E690E00E94310964E670E080E0E2
:101E400090E043C249E050E06FEC71E080E394E041
:101E50000E94E917892BB9F50E94ED0887E691E009
:101E60000E94280AF70181917F010E94350AF8E655
:101E7000EF16F4E0FF06B1F78FE691E00E94280A22
:101E800068EC70E080E090E00E9499036DE08FE7DD
:101E900094E00E940B0164EF71E080E090E00E940A
:101EA000990389ED91E00E94280A80E090E00E9469
:101EB000EB06682F70E080E090E04AE00E94400A64
:101EC0008CE891E0E2C149E050E065EE71E080E32A
:101ED00094E00E94E917892BA9F50E94ED0887E696
:101EE00091E00E94280AF70181917F010E94350A42
:101EF000F8E6EF16F4E0FF06B1F78FE691E00E94F6
:101F0000280A68EC70E080E090E00E9499036DE0A0
:101F10008FE794E00E940B0164EF71E080E090E0B5
:101F20000E9499038FEE91E00E94280A68EC70E00D
:101F300080E090E00E94A5084AE00E94400A8DEFF0
:101F400091E0A3C149E050E060E072E080E394E0FA
:101F50000E94E917892BA9F50E94ED0887E691E018
:101F60000E94280AF70181917F010E94350AF8E654
:101F7000EF16F4E0FF06B1F78FE691E00E94280A21
:101F800068EC70E080E090E00E9499036DE08FE7DC
:101F900094E00E940B0164EF71E080E090E00E9409
:101FA00099038AE092E00E94280A64E670E080E0EB
:101FB00090E00E94A5084AE00E94400A88E192E071
:101FC00064C149E050E060E272E080E394E00E9486
:101FD000E917892BA9F049E050E06AE272E080E35A
:101FE00094E00E94E917892B59F049E050E064E33E
:101FF00072E080E394E00E94E917892B09F0D1C0D8
:1020000080913704813309F03FC010922F04109261
:102010002E04F8E3EF2EF4E0FF2EF70181917F010B
:102020008B528F3028F030922F0420922E040BC058
:1020300064E170E080E090E00E949903F6E4EF161E
:10204000F4E0FF0651F780912E0490912F04892B24
:10205000D9F4E8E7EE2EF12CF701E054FC4F608153
:10206000C7010E94E90664E170E080E090E00E9410
:1020700099038FEFE81AF80AE6E8EE16F10461F723
:102080008EE392E00E94280A80913704823309F09F
:102090003FC010922F0410922E0478E3E72E74E0D4
:1020A000F72EF70181917F018B528F3028F030920B
:1020B0002F0420922E040BC064E170E080E090E0D9
:1020C0000E949903F6E4EF16F4E0FF0651F78091C1
:1020D0002E0490912F04892BD9F467E8E62EF12C79
:1020E000F701EF54FC4F6081C7010E94E90664E1EB
:1020F00070E080E090E00E9499038FEFE81AF80A00
:10210000E5E9EE16F10461F784E592E00E94280A01
:1021100080913704833309F03FC010922F0410924E
:102120002E0458E3E52E54E0F52EF70181917F014E
:102130008B528F3028F030922F0420922E040BC047
:1021400064E170E080E090E00E949903F6E4EF160D
:10215000F4E0FF0651F780912E0490912F04892B13
:10216000D9F446E9E42EF12CF701EE55FC4F6081DD
:10217000C7010E94E90664E170E080E090E00E94FF
:1021800099038FEFE81AF80AE4EAEE16F10461F712
:102190008AE692E00E94280A80E892E00E94280ADB
:1021A00096C04CE050E06EE872E080E394E00E945C
:1021B000E917892B09F08BC00E94ED0887E691E0B2
:1021C0000E94280AF70181917F010E94350AF8E6F2
:1021D000EF16F4E0FF06B1F78FE691E00E94280ABF
:1021E00068EC70E080E090E00E9499036DE08FE77A
:1021F00094E00E940B0164EF71E080E090E00E94A7
:1022000099038BE992E00E94280A38E7E32EF12C2B
:10221000C7010E94EB06682F8FE794E00E940B0134
:102220008FEFE81AF80AE6E8EE16F10489F783EA78
:1022300092E00E94280A27E8E22EF12CC7010E94B2
:10224000EB06682F8FE794E00E940B01FFEFEF1A77
:10225000FF0A85E9E816F10489F783EA92E00E9413
:10226000280A96E9E92EF12CC7010E94EB06682F97
:102270008FE794E00E940B01EFEFEE1AFE0AF4EAFA
:10228000EF16F10489F782E592E00E94280A6AE1DC
:102290008FE794E00E940B0168EE73E080E090E02D
:1022A0000E9499038EE891E00E94280A64EF71E091
:1022B00080E090E00E9499036DE08FE794E00E9437
:1022C0000B0164EF71E080E090E00E9499031092AE
:1022D0002D0410922C0410927E0410927D04109311
:1022E00001010093000168EE73E080E090E00E943D
:1022F000990310922B0410922A040E94ED0620E00C
:1023000030E0A9016091260470912704809128048F
:10231000909129040E94331818160CF10E945A0952
:10232000BC0180E090E0A50194010E946414CA0100
:10233000B9010E9438186093260470932704809393
:1023400028049093290480912A0490912B040196EB
:1023500090932B0480932A0406970CF487C0C090B6
:102360002404D09025040D2C000CEE08FF08C701B2
:10237000B6010E943A18209126043091270440911A
:102380002804509129040E94A0142B013C01609361
:102390002604709327048093280490932904609165
:1023A00020047091210480912204909123040E94C2
:1023B00038189B01AC01C301B2010E9499180E9418
:1023C00086156093790470937A0480937B049093CC
:1023D0007C04A70196010E946414CA01B9010E94FD
:1023E0003818609375047093760480937704909303
:1023F000780420E030E048EC52E40E9499180E94F2
:1024000086156093710470937204809373049093A3
:10241000740428EE33E040E050E00E946414CA01E6
:10242000B9010E9438186B017C0160936D047093B0
:102430006E0480936F049093700480E090E00E949B
:10244000EB06682F70E070936C0460936B04072EAA
:10245000000C880B990B0E943A189B01AC01C70134
:10246000B6010E943318181644F470C062E370E09D
:1024700080E090E00E94990342CF8091690490919E
:102480006A04892B09F062C00E94ED0887E691E09A
:102490000E94280A82E0E82EF12CC7010E94EB0678
:1024A000682F70E080E090E04AE00E94400A64E11A
:1024B00070E080E090E00E9499038FEFE81AF80A3C
:1024C000E0E1EE16F10449F78FE691E00E94280A58
:1024D00068EC70E080E090E00E9499036DE08FE787
:1024E00094E00E940B0164EF71E080E090E00E94B4
:1024F000990386EA92E00E94280A6AE18FE794E055
:102500000E940B0164EF71E080E090E00E9499036B
:1025100061E081E090E00E94E90630926A04209236
:1025200069048EE891E00E94280A64EF71E080E07F
:1025300090E00E9499036DE08FE794E00E940B0108
:1025400064EF71E080E090E00E9499030E94CA0469
:1025500091CACF93DF93109282041092810488EE87
:1025600093E0A0E0B0E08093830490938404A09370
:102570008504B09386042CE031E0309380042093EE
:102580007F0425EC30E030938C0420938B0424EC02
:1025900030E030938E0420938D0420EC30E03093B3
:1025A000900420938F0421EC30E030939204209328
:1025B000910422EC30E0309394042093930426ECB1
:1025C00030E0309396042093950410929804109272
:1025D000990410929A0410929B041092290610926A
:1025E000280680932A0690932B06A0932C06B0937E
:1025F0002D062CE131E03093270620932606109219
:102600000A061092090680930B0690930C06A0937D
:102610000D06B0930E068CE291E09093080680932D
:10262000070610921E0610921D06109220061092A8
:102630001F06109222061092210610922406109274
:102640002306609125066E7F6D7F60932506669553
:10265000617081E0682789E00E942803E7EBF0E0E1
:102660002491E3EAF0E08491882399F090E0880FC8
:10267000991FFC01EA57FF4FA591B491FC01E45862
:10268000FF4F859194918FB7F894EC91E22BEC93E6
:102690008FBFE7EBF0E0E491E0931706E3EAF0E0A8
:1026A000E491F0E0EE0FFF1FE458FF4F8591949105
:1026B0009093190680931806E6EBF0E02491E2EA85
:1026C000F0E084918823C1F090E0880F991FFC010D
:1026D000EA57FF4FC591D491FC01E458FF4FA591F3
:1026E000B4919FB7F8948881E22FE0958E23888378
:1026F0008C91E823EC939FBF8091250681FD04C057
:1027000061E088E00E94280388E080931306E6EBEE
:10271000F0E0E491E0931406E2EAF0E0E491F0E006
:10272000EE0FFF1FE057FF4F85919491909316068F
:10273000809315061092020610920106109204066C
:1027400010920306109206061092050640E050E033
:102750006AEB71E081E096E00E94A6021092FC050F
:102760001092FB051092FE051092FD0510920006D6
:102770001092FF0540E050E06AEB71E08BEF95E0CE
:102780000E94A602EAEBF0E0E491E093ED05E9EBAC
:10279000F0E0E491E093EE0586EA90E0FC012491FC
:1027A000E22FF0E0EE0FFF1FE458FF4F2591349128
:1027B0003093F0052093EF05E5EAF0E0E491F0E0D6
:1027C000EE0FFF1FE057FF4F259134913093F20534
:1027D0002093F105FC018491E82FF0E0EE0FFF1F3C
:1027E000EA57FF4F859194919093F4058093F305F8
:1027F0008DE89FE69093F6058093F5058FE1809331
:10280000DC05CFE0C093DD0562E070E08FE190E091
:102810000E94BF159093DF058093DE0561E070E0B4
:102820008FE190E00E94BF159093E1058093E00551
:1028300061E070E08FE190E00E94BF159093E305A6
:102840008093E205C093E4051092E5051092E60539
:102850001092E7051092E80520E08091DC0528172A
:10286000E0F4822F90E0E091E005F091E105E80FBF
:10287000F91F2083E091E205F091E305E80FF91FCD
:102880002083880F991FE091DE05F091DF05E80FA6
:10289000F91F118210822F5FE0CFDF91CF91089551
:1028A00097FB072E16F4009407D077FD09D00E94FD
:1028B000861407FC05D03EF4909581959F4F0895AE
:1028C000709561957F4F0895A1E21A2EAA1BBB1B3C
:1028D000FD010DC0AA1FBB1FEE1FFF1FA217B307EC
:1028E000E407F50720F0A21BB30BE40BF50B661F02
:1028F000771F881F991F1A9469F7609570958095C6
:1029000090959B01AC01BD01CF010895AA1BBB1B93
:1029100051E107C0AA1FBB1FA617B70710F0A61BDF
:10292000B70B881F991F5A95A9F780959095BC0100
:10293000CD010895EE0FFF1F0590F491E02D09944D
:102940005058BB27AA270E94B8140C941D190E9446
:102950000F1938F00E94161920F039F49F3F19F42E
:1029600026F40C940C190EF4E095E7FB0C94061970
:10297000E92F0E942E1958F3BA17620773078407CC
:10298000950720F079F4A6F50C9450190EF4E09513
:102990000B2EBA2FA02D0B01B90190010C01CA0119
:1029A000A0011124FF27591B99F0593F50F4503EC4
:1029B00068F11A16F040A22F232F342F4427585FB6
:1029C000F3CF469537952795A795F0405395C9F7CE
:1029D0007EF41F16BA0B620B730B840BBAF0915086
:1029E000A1F0FF0FBB1F661F771F881FC2F70EC025
:1029F000BA0F621F731F841F48F4879577956795F8
:102A0000B795F7959E3F08F0B0CF9395880F08F0E3
:102A10009927EE0F9795879508950E9421150C949C
:102A20001D190E94161958F00E940F1940F029F440
:102A30005F3F29F00C94061951110C9451190C9414
:102A40000C190E942E1968F39923B1F3552391F3C1
:102A5000951B550BBB27AA2762177307840738F00D
:102A60009F5F5F4F220F331F441FAA1FA9F335D06A
:102A70000E2E3AF0E0E832D091505040E695001C1E
:102A8000CAF72BD0FE2F29D0660F771F881FBB1FD8
:102A9000261737074807AB07B0E809F0BB0B802DB6
:102AA000BF01FF2793585F4F3AF09E3F510578F0E2
:102AB0000C9406190C9451195F3FE4F3983ED4F33B
:102AC000869577956795B795F7959F5FC9F7880FB6
:102AD000911D9695879597F90895E1E0660F771F08
:102AE000881FBB1F621773078407BA0720F0621B99
:102AF000730B840BBA0BEE1F88F7E09508950E94C4
:102B000086156894B1110C94511908950E943619D4
:102B100088F09F5798F0B92F9927B751B0F0E1F09E
:102B2000660F771F881F991F1AF0BA95C9F714C04E
:102B3000B13091F00E945019B1E008950C945019F1
:102B4000672F782F8827B85F39F0B93FCCF3869587
:102B500077956795B395D9F73EF4909580957095E4
:102B600061957F4F8F4F9F4F08950E94751808F40D
:102B70008FEF08950E947518880B990B08950F9395
:102B80001F93CF93DF93869F8001879F100D969FA1
:102B9000100D1124C8010E94DB15EC01009729F0EB
:102BA000A80160E070E00E94DB17CE01DF91CF91B9
:102BB0001F910F910895CF93DF938230910510F408
:102BC00082E090E0E0913406F091350620E030E0BC
:102BD000C0E0D0E0309711F140815181481759078A
:102BE000C0F04817590761F482819381209719F04A
:102BF0009B838A832BC0909335068093340626C02E
:102C00002115310519F04217530718F49A01BE0136
:102C1000DF01EF010280F381E02DDCCF21153105CA
:102C200009F1281B390B2430310590F412968D914F
:102C30009C9113976115710521F0FB0193838283A9
:102C400004C09093350680933406FD01329644C04B
:102C5000FD01E20FF31F81939193225031092D93CF
:102C60003C933AC02091320630913306232B41F435
:102C700020910401309105013093330620933206F0
:102C800020910201309103012115310541F42DB746
:102C90003EB74091060150910701241B350BE0918E
:102CA0003206F0913306E217F307A0F42E1B3F0B18
:102CB0002817390778F0AC014E5F5F4F24173507AE
:102CC00048F04E0F5F1F50933306409332068193B6
:102CD000919302C0E0E0F0E0CF01DF91CF91089541
:102CE0000F931F93CF93DF93009709F48CC0FC01DF
:102CF0003297138212820091340610913506011525
:102D0000110581F420813181820F931F20913206B9
:102D1000309133062817390779F5F0933306E0939D
:102D2000320671C0D80140E050E0AE17BF0750F442
:102D300012962D913C911397AD012115310509F1A2
:102D4000D901F3CF9D01DA01338322836081718140
:102D5000860F971F8217930769F4EC012881398148
:102D6000260F371F2E5F3F4F318320838A819B813F
:102D700093838283452B29F4F0933506E093340640
:102D800042C01396FC93EE931297ED01499159912D
:102D90009E01240F351FE217F30771F480819181A2
:102DA000840F951F029611969C938E938281938136
:102DB00013969C938E931297E0E0F0E0D801129660
:102DC0008D919C911397009719F0F8018C01F6CF23
:102DD0008D919C9198012E5F3F4F820F931F209100
:102DE0003206309133062817390769F4309729F4F1
:102DF000109235061092340602C01382128210938C
:102E0000330600933206DF91CF911F910F91089501
:102E1000A0E0B0E0EEE0F7E10C947119EC0100974E
:102E200021F4CB010E94DB15B8C0FC01E60FF71FAF
:102E30009C0122503109E217F30708F4ACC0D90114
:102E40000D911C91119706171707B0F00530110569
:102E500008F49FC0C80104978617970708F499C023
:102E600002501109061B170B019311936D937C936C
:102E7000CF010E9470168DC05B01A01AB10A4C01EF
:102E8000800E911EA0913406B091350640E050E0CE
:102E9000E12CF12C109709F44AC0A815B905D1F519
:102EA0006D907C901197630182E0C80ED11CCA140A
:102EB000DB0480F1A3014A195B096A0182E0C80EB4
:102EC000D11C1296BC9012971396AC91B5E0CB161C
:102ED000D10440F0B282A38351834083D9016D9322
:102EE0007C930AC00E5F1F4FC301800F911FF90131
:102EF00091838083EB2DFA2FE114F10431F0D70197
:102F00001396FC93EE93129744C0F0933506E0932A
:102F100034063FC08D919C9111974817590708F4CA
:102F2000AC017D0112960D90BC91A02DB3CF809184
:102F300032069091330688159905E1F44617570734
:102F4000C8F48091020190910301009741F48DB77C
:102F50009EB74091060150910701841B950BE8171D
:102F6000F907C8F4F0933306E0933206F901718350
:102F700060830FC0CB010E94DB157C01009759F0E4
:102F8000A801BE010E94D217CE010E947016C7018F
:102F900004C0CE0102C080E090E0CDB7DEB7EEE025
:102FA0000C948D19FB01DC0102C001900D9241507F
:102FB0005040D8F70895DC0101C06D934150504056
:102FC000E0F70895FB01DC0101900D920020E1F78C
:102FD0000895FB01DC014150504030F08D9101908B
:102FE000801919F40020B9F7881B990B08951F93D5
:102FF000FC0199278827BC01E89411911032E9F36C
:10300000193010F01E30C8F31B3251F01D3249F454
:10301000689406C00E941E18610F711D811D911DCC
:10302000119110531A30B0F33EF49095809570953D
:1030300061957F4F8F4F9F4F1F910895592F482FB4
:10304000372F262F660F771F881F991F660F771F50
:10305000881F991F620F731F841F951F660F771FAC
:10306000881F991F08950E94751808F481E008953B
:10307000E89409C097FB3EF4909580957095619512
:103080007F4F8F4F9F4F9923A9F0F92F96E9BB27C8
:103090009395F695879577956795B795F111F8CF44
:1030A000FAF4BB0F11F460FF1BC06F5F7F4F8F4FAF
:1030B0009F4F16C0882311F096E911C0772321F0A5
:1030C0009EE8872F762F05C0662371F096E8862F3D
:1030D00070E060E02AF09A95660F771F881FDAF794
:1030E000880F9695879597F90895990F0008550FC1
:1030F000AA0BE0E8FEEF16161706E807F907C0F07E
:1031000012161306E407F50798F0621B730B840B85
:10311000950B39F40A2661F0232B242B252B21F45F
:1031200008950A2609F4A140A6958FEF811D811DFF
:1031300008950E94AC180C941D190E940F1938F0C4
:103140000E94161920F0952311F00C9406190C9486
:103150000C1911240C9451190E942E1970F3959F8B
:10316000C1F3950F50E0551F629FF001729FBB277E
:10317000F00DB11D639FAA27F00DB11DAA1F649F1A
:103180006627B00DA11D661F829F2227B00DA11DCD
:10319000621F739FB00DA11D621F839FA00D611D53
:1031A000221F749F3327A00D611D231F849F600D74
:1031B000211D822F762F6A2F11249F5750409AF09D
:1031C000F1F088234AF0EE0FFF1FBB1F661F771F29
:1031D000881F91505040A9F79E3F510580F00C94F4
:1031E00006190C9451195F3FE4F3983ED4F3869589
:1031F00077956795B795F795E7959F5FC1F7FE2B94
:10320000880F911D9695879597F9089597F99F676F
:1032100080E870E060E008959FEF80EC089500245E
:103220000A941616170618060906089500240A942B
:1032300012161306140605060895092E0394000CB1
:1032400011F4882352F0BB0F40F4BF2B11F460FF40
:1032500004C06F5F7F4F8F4F9F4F089557FD905869
:10326000440F551F59F05F3F71F04795880F97FB4A
:10327000991F61F09F3F79F0879508951216130604
:103280001406551FF2CF4695F1DF08C01616170633
:103290001806991FF1CF8695710561050894089568
:1032A000E894BB2766277727CB0197F90895F9990A
:1032B000FECF92BD81BDF89A992780B50895262F3B
:1032C000F999FECF1FBA92BD81BD20BD0FB6F8940B
:1032D000FA9AF99A0FBE019608952F923F924F9253
:1032E0005F926F927F928F929F92AF92BF92CF9296
:1032F000DF92EF92FF920F931F93CF93DF93CDB79F
:10330000DEB7CA1BDB0B0FB6F894DEBF0FBECDBF16
:1033100009942A88398848885F846E847D848C84E7
:103320009B84AA84B984C884DF80EE80FD800C81F0
:103330001B81AA81B981CE0FD11D0FB6F894DEBFD3
:103340000FBECDBFED01089510E0C2E6D0E004C08D
:10335000FE010E949A142196C336D107C9F7F8944A
:02336000FFCF9D
:103362000400000036068000000000000B018D0002
:10337200D900B800CB00520100000000C801B4011E
:10338200AD01AA01A701A60100000000F2018D0013
:1033920046025E02D901F1012B3233340041542B33
:1033A200434E4D493D312C322C302C302C300041D3
:1033B200542B434D47463D31004154453000442E85
:1033C2006C6576656C2A0041542B434D47533D2270
:1033D2000044494553454C204C4556454C3A200043
:1033E200204C6974657273002C2020002500415422
:1033F2002B434D47443D312C34005245414C20442F
:10340200455054482050524F5045524C5920544137
:1034120042554C41544544000D0A00442E736574D4
:1034220000442E5473657400442E4C73657400443A
:103432002E5669657754482A005448524553484FDE
:103442004C443A2000442E56696577544B2A005466
:10345200414E4B204845494748543A2000434D00CD
:10346200442E56696577544C2A0054414E4B204CE9
:1034720049544552533A2000204C49544552530076
:10348200442E41646D696E312B00442E41646D6996
:103492006E322B00442E41646D696E332B005355FE
:1034A20043434553532041646D696E205265673131
:1034B2002E2E2E00535543434553532041646D69CC
:1034C2006E20526567322E2E2E00535543434553CC
:1034D200532041646D696E20526567332E2E2E0093
:1034E200456E74657265642041444D494E00442E18
:1034F2005669657741646D696E2A0041444D494EB3
:103502003A20002C2000504C45415345205245465C
:10351200494C4C2044494553454C2E006E616E0087
:08352200696E66006F76660019
:00000001FF
