:100000000C9463000C948B000C948B000C944A05A8
:100010000C944A050C944A050C948B000C9423050F
:100020000C948B000C948B000C948B000C948B0024
:100030000C948B000C948B000C948B000C948B0014
:100040000C94AB030C948B000C9431090C940B09A9
:100050000C948B000C948B000C948B000C948B00F4
:100060000C94F5030C948B000000000800020100C2
:100070000003040700000000000000000000000072
:10008000250028002B0000000000240027002A0083
:1000900000000000230026002900040404040404D6
:1000A0000404020202020202030303030303010227
:1000B00004081020408001020408102001020408F6
:1000C0001020E9127F0B11241FBECFEFD8E0DEBF56
:1000D000CDBF12E0A0E0B1E0ECEEF3E302C005908A
:1000E0000D92A835B107D9F725E0A8E5B2E001C027
:1000F0001D92A63CB207E1F710E0C2E6D0E004C0D2
:100100002197FE010E94DA14C136D107C9F70E9477
:10011000A70B0C94E9190C940000FC01918D828DC1
:10012000981759F0828DDF01A80FB11D5D968C9153
:10013000928D9F5F928F90E008958FEF9FEF0895CB
:10014000FC01918D828D981731F0828DE80FF11DA1
:10015000858D90E008958FEF9FEF0895FC01918DBC
:10016000828D981B892F90E0089585ED8093BC00C7
:100170008091BC0084FDFCCF10921903089540913A
:10018000F302262F30E0240F311D21323105DCF43B
:10019000209119032430C9F4FC0180E090E0861717
:1001A00058F43091F3022191DC01AF52BD4FA30FFF
:1001B000B11D2C930196F3CF8091F302680F6093E9
:1001C000F30280E0089581E0089582E008950895A3
:1001D0008FEF9FEF08958FEF9FEF08958091D002EA
:1001E00090E09195819591090895CF93DF9300D088
:1001F000CDB7DEB7CB01642F49835A830E94BF007D
:100200004981842F5A81952F0F900F90DF91CF91C4
:100210000895CF93DF931F92CDB7DEB7698361E076
:10022000CE0101960E94BF0081E090E00F90DF9127
:10023000CF91089520914A0330914B032817390735
:1002400071F49091480380914903981741F0E0912F
:100250004803F0E0E257FD4F808190E008958FEF72
:100260009FEF089508951F93CF93DF93DC015C9671
:100270002D913C915D972115310539F481E090E095
:1002800013969C938E9312973DC05196ED91FC91DD
:10029000529750969C915097892F80951FB75E96E4
:1002A0004C915E9741FB772770F941FD6095F8947A
:1002B0004081772311F0492B01C048234083E90195
:1002C0002197F1F748E0508160FF02C0592B01C02F
:1002D00058235083E9012197F1F76695415099F72A
:1002E000772321F090818923808303C08081982B1C
:1002F00090831FBF5C968D919C915D970197F1F75C
:1003000021E030E0C901DF91CF911F910895209144
:100310004A0330914B032817390771F48091490340
:100320002091480390E0805C9F4F821B910960E41C
:1003300070E00E949014089580E090E0089520916C
:100340004A0330914B0328173907B9F490914803B9
:1003500080914903981789F0E0914803F0E0E25753
:10036000FD4F80812091480330E02F5F3F4F2F7376
:1003700033272093480390E008958FEF9FEF08956F
:10038000FC01848DDF01A80FB11DA35EBE4F2C912F
:10039000848D90E001968F739927848FA689B78901
:1003A0002C93A089B1898C9180648C93938D848DDA
:1003B000981306C00288F389E02D80818F7D8083A9
:1003C0000895CF93DF93EC01888D8823C9F0EA89E3
:1003D000FB89808185FD05C0A889B9898C9186FD3E
:1003E0000FC00FB607FCF5CF808185FFF2CFA8893B
:1003F000B9898C9185FFEDCFCE010E94C001E7CF76
:10040000DF91CF91089590E0FC01E859FF4F3491BE
:10041000FC01E255FF4F2491FC01E656FF4FE491A9
:10042000EE2309F43BC0332339F1333091F038F433
:100430003130A9F0323001F584B58F7D12C03730EC
:1004400091F03830A1F03430B9F4809180008F7D84
:1004500003C0809180008F77809380000DC084B5A9
:100460008F7784BD09C08091B0008F7703C08091E1
:10047000B0008F7D8093B000F0E0EE0FFF1FE458D6
:10048000FF4FA591B4918FB7F894EC91611103C01F
:1004900020952E2301C02E2B2C938FBF08953FB79C
:1004A000F8948091440390914503A0914603B09144
:1004B000470326B5A89B05C02F3F19F00196A11D43
:1004C000B11D3FBFBA2FA92F982F8827820F911DEA
:1004D000A11DB11DBC01CD0142E0660F771F881F31
:1004E000991F4A95D1F708958F929F92AF92BF922C
:1004F000CF92DF92EF92FF926B017C010E944F023C
:100500004B015C01C114D104E104F104F1F00E943B
:100510004F02DC01CB0188199909AA09BB09883E61
:100520009340A105B10570F321E0C21AD108E1089A
:10053000F10888EE880E83E0981EA11CB11CC1143E
:10054000D104E104F10419F7DDCFFF90EF90DF90C3
:10055000CF90BF90AF909F908F900895DF92EF92D1
:10056000FF920F931F93CF93DF9302E010E08FE091
:1005700094E00E94AE00892B09F4DFC08091BC0397
:100580009091BD03892B09F0D8C0C0E0D0E02FB70F
:10059000F8948091400390914103A0914203B0915F
:1005A00043032FBF8093170490931804A09319045A
:1005B000B0931A04E0910F04F09110040680F781C3
:1005C000E02D8FE094E0099597FD0BC0FE01E85CFB
:1005D000FE4F2081022E000C330B8217930731F55A
:1005E00059C02FB7F8948091400390914103A09196
:1005F0004203B09143032FBF409117045091180458
:100600006091190470911A04841B950BA60BB70B0B
:1006100040911304509114046091150470911604D4
:1006200084179507A607B70728F2A1CF209709F4EA
:10063000AECF69E371E09E0121503109F901E85C18
:10064000FE4F4081042E000C550B84179507F1F4E2
:100650002115310509F49BCFE8E3F1E040E050E0DB
:10066000D1907B01E40EF51ED701FC90DF1441F020
:100670004217530709F48BCF6F5F7F4FE901DBCF40
:100680004F5F5F4F4217530758F3F2CF21153105E3
:1006900099F77BCF2196C430D10509F078CFD0935C
:1006A0000101C093000161E08DE00E94030268EC4B
:1006B00070E080E090E00E94740260E08DE00E94B3
:1006C000030268EC70E080E090E00E9474028FE02A
:1006D00094E00E94AE00892B09F449CF8FE094E0AA
:1006E0000E948D002091BC033091BD03232B79F42F
:1006F0002091000130910101A9014F5F5F4F50939C
:10070000010140930001F901E45BFC4F80838232D8
:1007100029F41093BD030093BC03D9CF833229F48D
:100720001092BD031092BC03D2CF8A3281F681E0D1
:1007300090E09093BD038093BC03DF91CF911F9114
:100740000F91FF90EF90DF9008950E94680881114B
:100750000C94AE0208951F920F920FB60F921124BF
:100760002F933F938F939F93AF93BF9380914003B9
:1007700090914103A0914203B091430330913F0314
:1007800023E0230F2D3720F40196A11DB11D05C0D4
:1007900026E8230F0296A11DB11D20933F038093ED
:1007A000400390934103A0934203B093430380918D
:1007B000440390914503A0914603B09147030196ED
:1007C000A11DB11D8093440390934503A09346035C
:1007D000B0934703BF91AF919F918F913F912F911C
:1007E0000F900FBE0F901F9018951F920F920FB68B
:1007F0000F9211242F933F934F935F936F937F93A7
:100800008F939F93AF93BF93EF93FF938091B90022
:10081000887F803609F49CC068F5883209F45BC093
:1008200090F4803109F454C038F4882309F4F6C0F8
:10083000883009F44DC0F6C0883109F44CC08032CC
:1008400009F45DC0EFC0803409F468C048F4803317
:1008500009F455C0883309F0E5C080931803D8C067
:10086000803509F44FC0883509F45DC0883409F03B
:10087000D9C0D6C0883909F4C7C0A8F4883709F4AC
:1008800067C038F4883609F463C0803709F460C063
:10089000C9C0883809F4B8C0803909F45FC080380D
:1008A00009F0C0C05BC0803B09F486C038F4803AD0
:1008B00009F466C0883A09F47FC0B4C0803C09F4EA
:1008C000A7C0883C09F4A4C0883B09F48AC0AAC028
:1008D00080913E0310C090913D0380913C03981796
:1008E00070F5E0913D0381E08E0F80933D03F0E0D1
:1008F000E45EFC4F80818093BB0085EC86C08093D2
:1009000018038EC0E0913D0381E08E0F80933D037C
:100910008091BB00F0E0E45EFC4F808390913D034A
:1009200080913C036EC0E0913D0381E08E0F809387
:100930003D038091BB00F0E0E45EFC4F808380913A
:100940001B0381116DC081E080931A0384EA61C0AA
:1009500083E08093190310921703CFCF8091170380
:10096000803208F051C0E091170381E08E0F809330
:1009700017038091BB00F0E0E950FD4F8083BDCFAD
:1009800085EC8093BC00109219038091170380328C
:1009900030F4E0911703F0E0E950FD4F10826091D0
:1009A000170370E0E091F502F091F60287EF92E014
:1009B00009951092170336C084E0809319031092B2
:1009C000F4021092F302E091F102F091F202099523
:1009D0008091F302811105C081E08093F3021092AF
:1009E000D102E091F40281E08E0F8093F402F0E0F6
:1009F000EF52FD4F80818093BB009091F402809173
:100A0000F302981708F479CF85E88093BC000AC0F8
:100A100085EC8093BC001092190304C01092180357
:100A20000E94B500FF91EF91BF91AF919F918F917F
:100A30007F916F915F914F913F912F910F900FBEDA
:100A40000F901F9018951F920F920FB60F921124BE
:100A50002F933F934F935F936F937F938F939F93C6
:100A6000AF93BF93EF93FF93E091CE02F091CF024B
:100A70000995FF91EF91BF91AF919F918F917F91D8
:100A80006F915F914F913F912F910F900FBE0F90FB
:100A90001F9018951F920F920FB60F9211242F934B
:100AA0003F934F935F936F937F938F939F93AF93F6
:100AB000BF93EF93FF93E0914A03F0914B0330977C
:100AC00009F451C0968DA685B785858591FF04C030
:100AD0009C91892329F447C09C91892309F043C044
:100AE000A389B4899C918589809589238C93868973
:100AF00097890197F1F7608D718DA685B78555852A
:100B000038E020E0CB010197F1F7822F90E0959536
:100B10008795282F4C91452309F02068315091F793
:100B2000868D81FD20958091490390E001968F7319
:100B3000992730914803381749F0A0914903B0E054
:100B4000A257BD4F2C938093490303C0868D8160CB
:100B5000868F828D938D0197F1F7A389B4899C913B
:100B60008589892B8C93FF91EF91BF91AF919F91D4
:100B70008F917F916F915F914F913F912F910F9046
:100B80000FBE0F901F9018950C94A4190C949C19EB
:100B90004F925F926F927F92AF92BF92CF92DF920D
:100BA000EF92FF920F931F93CF93DF93CEE5D2E0A6
:100BB0000E9474098C01BC0180E090E00E947D18C5
:100BC00060938A0270938B0280938C0290938D02C3
:100BD00062E370E080E090E00E94740220916C0576
:100BE0008091740530916E0590916F05E32FF92F78
:100BF000E80FF11DE80FF11D80819181A801481BCC
:100C0000590B052E000C660B770B809175059091A2
:100C10007605A0917705B0917805480F591F6A1F96
:100C20007B1F40937505509376056093770570930D
:100C300078051183008380917405E0917205F0912D
:100C40007305E80FF11D808181110EC02150809144
:100C50007405E0917205F0917305E80FF11D808134
:100C6000821708F465C055C010E09FEF980FF09010
:100C70006E0500916F05E0917405609170057091AB
:100C80007105492F50E0DB01A40FB51F3C91AF2D3A
:100C9000B02FAE0FB11DAE0FB11DEF2DF02FE30F32
:100CA000F11DE30FF11D0D90BC91A02D0190F0817D
:100CB000E02DAE17BF07CCF5FB01E80FF11D308327
:100CC000E0917005F0917105E40FF51F8081E091CE
:100CD0007205F0917305E80FF11D80818F5F8083AD
:100CE000809174056091700570917105FB01E40FAE
:100CF000F51F808380917405E0917205F091730572
:100D0000E80FF11D808181508083892F11E09111BE
:100D1000ACCF809174058F5F8093740590916C05C2
:100D200089135BC01092740558C01111F2CF8ECF99
:100D300090E030E08217930764F7F0906E05009121
:100D40006F05E09174056091700570917105AC01BB
:100D50004F5F5F4FDB01A40FB51F1C91AF2DB02F6C
:100D6000AE0FB11DAE0FB11DEF2DF02FE10FF11D34
:100D7000E10FF11D0D90BC91A02D0190F081E02DAF
:100D8000EA17FB0734F6FB01E80FF91F1083E09127
:100D90007005F0917105E40FF51F8081E0917205F7
:100DA000F0917305E80FF11D80818150808380915F
:100DB0007405E0917005F0917105E40FF51F8083D3
:100DC00080917405E0917205F0917305E80FF11DB3
:100DD00080818F5F8083CA01ADCF80916D05E091E6
:100DE0007005F0917105E80FF11D808120916E056D
:100DF00090916F05E22FF92FE80FF11DE80FF11D1B
:100E000060817181072E000C880B990B0E947F185E
:100E10006093860270938702809388029093890280
:100E200020E030E044E652E40E944D157B018C0145
:100E3000CB01D8018093B6039093B703A093B80376
:100E4000B093B903B701C8010E94BF1569937993A4
:100E500022E0C638D20709F0ABCEB701C8010EE5D3
:100E600012E0E12CF12CE114F10419F0C0E0D0E023
:100E700026C0F801A080B1803EE5C32E32E0D32E1B
:100E8000C0E0D0E025010B2C000C66087708F601C5
:100E9000219131916F01A216B30641F42196C3014D
:100EA000B2010E947F18CF30D10534F4F6E8CF1696
:100EB000F2E0DF0661F703C0EE24E394F12C0E5F4D
:100EC0001F4F22E00638120771F6D093BB03C09380
:100ED000BA038B019C010093B6031093B7032093D0
:100EE000B8033093B903F0925D02E0925C02DF91A7
:100EF000CF911F910F91FF90EF90DF90CF90BF9017
:100F0000AF907F906F905F904F900895CF92DF9257
:100F1000EF92FF920F931F93CF936B017C01CB0154
:100F20000E94C605182FC60101960E94C605C82F4B
:100F3000C60102960E94C605082FC60103960E94AC
:100F4000C6054C2F50E060E070E0762F652F542FDF
:100F50004427410F511D611D711D10E020E030E05C
:100F6000980111270027400F511F621F731F90E047
:100F7000A0E0B0E0B82FAA27992788278A019B0113
:100F8000080F191F2A1F3B1FC901B801CF911F91DC
:100F90000F91FF90EF90DF90CF9008958DE391E057
:100FA0000E94300A68EC70E080E090E00E947402D9
:100FB0006DE08FE094E00E94720864EF71E080E0E1
:100FC00090E00E9474028FE491E00E94300A68EC85
:100FD00070E080E090E00E9474026DE08FE094E0A9
:100FE0000E94720864EF71E080E090E00E94740259
:100FF00068EC70E080E090E00E9486077093B50393
:101000006093B40364E670E080E090E00E9486079D
:101010006093B0037093B1038093B2039093B303D2
:101020000C94320ACF92DF92EF92FF92CF93DF932C
:10103000EC016A017B01642F0E94C40599278F2D62
:101040007E2D6D2DCE0101960E94C405B701882723
:101050009927CE0102960E94C4056F2D7727882715
:101060009927CE010396DF91CF91FF90EF90DF900B
:10107000CF900C94C405CF92DF92EF92FF920F9322
:101080001F93CF93DF936C017A018B01C0E0D0E016
:10109000CE15DF0589F0D8016D918D01D601ED9156
:1010A000FC910190F081E02DC6010995892B11F486
:1010B0007E0102C02196ECCFC701DF91CF911F9135
:1010C0000F91FF90EF90DF90CF9008950E9412183B
:1010D0008FE094E00E94AE0021E0892B09F420E02B
:1010E000822F0895EF92FF920F931F93CF93DF9378
:1010F000EC0181E0888F9B8D8C8D981305C0E88969
:10110000F989808185FD24C0F62E0B8D10E00F5FDC
:101110001F4F0F731127E02E8C8DE8120CC00FB6F5
:1011200007FCFACFE889F989808185FFF5CFCE01E8
:101130000E94C001F1CF8B8DFE01E80FF11DE35E2F
:10114000FE4FF0820B8FEA89FB898081806207C0A5
:10115000EE89FF896083E889F989808180648083D2
:1011600081E090E0DF91CF911F910F91FF90EF9080
:1011700008950F931F93CF93DF93EC01888199819A
:10118000009729F02A813B812617370788F48B01C5
:101190006F5F7F4F0E944817009761F099838883A3
:1011A0001B830A832C813D81232B11F4FC011082C7
:1011B00081E001C080E0DF91CF911F910F910895F0
:1011C000EF92FF920F931F93CF93DF93EC017B017C
:1011D0008A01BA010E94B9082881398181110DC0A4
:1011E0002115310519F0C9010E94B0161982188223
:1011F0001D821C821B821A8206C01D830C83B701CC
:10120000C9010E942718CE01DF91CF911F910F9144
:10121000FF90EF9008951F920F920FB60F92112436
:101220002F933F934F935F936F937F938F939F93EE
:10123000AF93BF93EF93FF938FE094E00E94C001C0
:10124000FF91EF91BF91AF919F918F917F916F919E
:101250005F914F913F912F910F900FBE0F901F9074
:1012600018951F920F920FB60F9211242F938F9300
:101270009F93EF93FF93E0911F04F09120048081EE
:10128000E0912504F091260482FD11C090818091A7
:1012900028048F5F20912904821751F0E0912804DF
:1012A000F0E0E15FFB4F958F8093280401C08081BF
:1012B000FF91EF919F918F912F910F900FBE0F9003
:1012C0001F901895009769F0FC0101900020E9F744
:1012D0003197AF01481B590BBC018FE094E00C948F
:1012E0003B0880E090E008950F931F93E091830501
:1012F000F0918405908180917D05892B8083E09118
:101300007F05F0918005908180917D0580958923EE
:1013100080838BE090E00197F1F7E0917F05F091F9
:101320008005908180917D05892B808383E290E008
:101330000197F1F7E0917F05F09180059081809110
:101340007D05809589238083E0918305F091840554
:10135000908180917D05809589238083E09181052E
:10136000F0918205908180917E05892309F073C0F8
:101370000E944F022091850530918605890120E069
:1013800030E00855194E2F4F3F4FDC01CB01800F45
:10139000911FA21FB31F8093870590938805A09388
:1013A0008905B0938A05E0918105F09182059081CD
:1013B00080917E05892381F40E944F020091870568
:1013C000109188052091890530918A050617170725
:1013D0002807390740F73FC00E944F02209185053A
:1013E00030918605DC01CB01820F931FA11DB11D39
:1013F0008093870590938805A0938905B0938A050B
:10140000E0918105F0918205908180917E0589238C
:1014100081F00E944F02009187051091880520916C
:10142000890530918A05061717072807390740F7FD
:1014300012C00E944F0220918505309186052550EB
:1014400031094091870550918805241B350BC9014E
:10145000860F971F02C080E090E01F910F910895C2
:101460000C94620940E050E06BE871E08BE895E095
:101470000E94E0088BE895E00895E0910F04F09158
:1014800010040190F081E02D682F8FE094E0099422
:101490008F929F92AF92BF920F931F93CF93DF9340
:1014A000CDB7DEB7A1970FB6F894DEBF0FBECDBFA4
:1014B00019A2423008F44AE08E010F5D1F4F842EBE
:1014C000912CA12CB12CA50194010E94A414E62F0B
:1014D000B901CA0101501109EA3014F4E05D01C0FC
:1014E000E95CD801EC93232B242B252B61F7C80151
:1014F0000E946209A1960FB6F894DEBF0FBECDBF61
:10150000DF91CF911F910F91BF90AF909F908F90DF
:1015100008950F931F93CF93DF9300D0CDB7DEB71D
:1015200089831A8200918F05109190050F5F1F4FDC
:10153000B8018BE895E00E94B9088823A1F02091BA
:101540008B0530918C0580918F0590919005BE019F
:101550006F5F7F4F820F931F0E9427181093900593
:1015600000938F0581E00F900F90DF91CF911F9135
:101570000F9108958F929F92AF92BF92CF92DF9278
:10158000EF92FF92CF93DF936B017C019B01AC0143
:101590000E94FA15882319F08BE492E027C04601D7
:1015A0005701E894B7F82FEF3FEF4FE75FE7C5012A
:1015B000B4010E94FA1581110DC02FEF3FEF4FE7E4
:1015C0005FE7C501B4010E94781818161CF48FE477
:1015D00092E00CC02FEF3FEF4FE75FE4C701B60189
:1015E0000E94F515181674F483E592E0DF91CF910F
:1015F000FF90EF90DF90CF90BF90AF909F908F9033
:101600000C9462092FEF3FEF4FE75FECC701B60183
:101610000E94781887FDE8CF20E030E0A901C701DB
:10162000B6010E94781887FF09C08DE20E943D0A2A
:10163000EC01F7FAF094F7F8F09402C0C0E0D0E0C3
:101640002AE037ED43EA5BE3C701B6010E94E114EB
:101650004B015C010E94C6156B017C010E947D1844
:101660009B01AC01C501B4010E94E0144B015C0177
:101670004AE0C701B6010E94480AC80FD91F89E491
:1016800092E00E946209C80FD91F20E030E040E2DA
:1016900051E4C501B4010E94DE184B015C010E94B7
:1016A000C6156B01E12CF12C4AE0C701B6010E947E
:1016B000480AC80FD91FC701B6010E947D189B01B7
:1016C000AC01C501B4010E94E01420E030E040E22A
:1016D00051E40E94DE180E94C61580E090E04AE0C6
:1016E0000E94480A8C0F9D1FDF91CF91FF90EF90D1
:1016F000DF90CF90BF90AF909F908F900895809192
:101700008B0590918C050E94B01680919105909167
:1017100092050E94B0168CE291E090939805809318
:10172000970580914A0390914B038759954071F436
:10173000E091AA05F091AB0590818091AC05809570
:101740008923808310924B0310924A030895CF930C
:10175000DF9300D000D0CDB7DEB7789484B5826037
:1017600084BD84B5816084BD85B5826085BD85B545
:10177000816085BD80916E00816080936E001092C3
:10178000810080918100826080938100809181003E
:1017900081608093810080918000816080938000CF
:1017A0008091B10084608093B1008091B00081602D
:1017B0008093B00080917A00846080937A00809159
:1017C0007A00826080937A0080917A0081608093B1
:1017D0007A0080917A00806880937A001092C1002C
:1017E00081E090E00E94C60590E09093FA03809318
:1017F000F90368EC70E080E090E00E948607709347
:10180000B5036093B40360ED77E080E090E00E9460
:101810007402E0911F04F091200482E08083E09143
:101820001B04F0911C041082E0911D04F0911E0431
:101830008FEC808310922704E0912304F09124041C
:1018400086E08083E0912104F09122048081806110
:101850008083E0912104F09122048081886080835C
:10186000E0912104F0912204808180688083E091DE
:101870002104F091220480818F7D80831092B20533
:101880001092B1051092B0051092AF051092AE05FE
:101890001092AD058DE991E09093B4058093B30566
:1018A0009091A305963108F057C02DEB30E03093AE
:1018B000AE052093AD052BE931E03093B0052093C0
:1018C000AF052CE231E03093B2052093B1052091B1
:1018D0006800983050F031E09E3008F430E081E04C
:1018E00001C0880F3A95EAF701C084E0822B80930B
:1018F0006800983038F09E3040F0963148F020E093
:1019000030E008C02DE630E005C02BE630E002C034
:101910002CE630E03093AB052093AA05983030F4E4
:1019200081E001C0880F9A95EAF70EC0292F30E0B8
:101930009E3018F42850310902C02E50310981E040
:1019400001C0880F2A95EAF78093AC058091B30512
:101950009091B4050197F1F78091B1059091B2058E
:10196000892B49F1E0914A03F0914B0385E0E73977
:10197000F80709F1309739F0A389B4899C918589DA
:10198000809589238C938091B5058E7F8093B505D2
:10199000109249031092480387E995E090934B0316
:1019A00080934A03E091AA05F091AB059081809164
:1019B000AC05892B808360ED77E080E090E00E94A9
:1019C000740260ED77E080E090E00E94740289E5A7
:1019D00091E00E94300A68EC70E080E090E00E94A4
:1019E00074026DE08FE094E00E94720864EF71E091
:1019F00080E090E00E9474028DE391E00E94300A42
:101A000064EF71E080E090E00E9474026DE08FE08E
:101A100094E00E94720864EF71E080E090E00E9420
:101A200074028FE491E00E94300A64EF71E080E07C
:101A300090E00E9474026DE08FE094E00E947208D2
:101A400068EE73E080E090E00E9474028BE2809385
:101A50004C0382E380934D0383E380934E0384E33E
:101A600080934F0384E090E0909301018093000104
:101A700004E010E022242394312C29E3822E912CBF
:101A8000A12CB12C8091BC039091BD03019709F06A
:101A90003EC4ECE4F3E08AEEE82E83E0F82ED701B2
:101AA00081918D9383E0EA35F807D1F7ABE5B3E098
:101AB000E0ECF3E08D9181938A3221F083E0E83EFF
:101AC000F807C1F748E050E06EE571E080EC93E084
:101AD0000E942E18892B09F023C10E94CE0787E6A9
:101AE00091E00E94300AF70181917F010E943D0A36
:101AF000F8EFEF16F3E0FF06B1F78FE691E00E94F2
:101B0000300A68EC70E080E090E00E9474026DE0C2
:101B10008FE094E00E94720864EF71E080E090E052
:101B20000E94740281E791E00E94300A0E94C80579
:101B3000C090B603D090B703E090B803F090B9031B
:101B400020E030E0A901C701B6010E94781888237F
:101B500009F49FC020E030E0A901C701B6010E944E
:101B6000781887FD96C0C090B403D090B5030D2CB3
:101B7000000CEE08FF08C701B6010E947F182091F3
:101B8000B6033091B7034091B8035091B9030E9456
:101B9000E0142B013C016093B6037093B70380936C
:101BA000B8039093B9036091B0037091B103809131
:101BB000B2039091B3030E947D189B01AC01C30155
:101BC000B2010E94DE180E94C6156093090470934A
:101BD0000A0480930B0490930C04A70196010E94C1
:101BE000A414CA01B9010E947D186B017C016093A5
:101BF000050470930604809307049093080420E082
:101C000030E048EC52E40E94DE180E94C615609352
:101C1000010470930204809303049093040428EE5B
:101C200033E040E050E00E94A414CA01B9010E94D0
:101C30007D186093FD037093FE038093FF039093E0
:101C40000004C701B6010E94BA0A80E891E00E9430
:101C5000300A88E891E00E94300A6091FD0370919B
:101C6000FE038091FF03909100040E94BA0A8CE861
:101C700091E00E94300A89E492E00E94300A6AE111
:101C80008FE094E00E94720864EF71E080E090E0E1
:101C900015C31092BB031092BA03C090B603D09044
:101CA000B703E090B803F090B90320E030E0A90159
:101CB000C701B6010E947818811128C00E947409DA
:101CC000BC0180E090E0A50194010E94A414CA0127
:101CD000B9010E947D186093B6037093B703809397
:101CE000B8039093B9038091BA039091BB03019616
:101CF0009093BB038093BA030B970CF034CF62E34D
:101D000070E080E090E00E947402C7CF20E030E0F5
:101D1000A901C701B6010E94781887FDCFCF23CF54
:101D200045E050E06AE971E080EC93E00E942E18F3
:101D3000892B29F58091C6030E94890A8091C703E7
:101D40000E94890A8091C8030E94890A80918B05AC
:101D500090918C05009719F00E943C1803C060E038
:101D600070E0CB017093FC036093FB036336710555
:101D700008F0BBC280E090E00E94C405B6C246E015
:101D800050E060EA71E080EC93E00E942E18892B0D
:101D900069F5B6ECEB2EB3E0FB2EF70181917F01E4
:101DA0008A3219F00E94890AF8CF80918B059091B0
:101DB0008C05009729F00E943C186B017C0103C040
:101DC000C12CD12C7601D092FC03C092FB030E945F
:101DD000320AF5EFCF16F1E0DF0608F086C2A60161
:101DE000DD0C660B770B88EC90E040C046E050E0DD
:101DF00067EA71E080EC93E00E942E18892BE9F5E8
:101E0000A6ECEA2EA3E0FA2EF70181917F018A3237
:101E100019F00E94890AF8CF80918B0590918C056A
:101E2000009729F00E943C18AB01BC0103C040E0C0
:101E300050E0BA014093090450930A0460930B04E4
:101E400070930C0449835A836B837C830E94320A0B
:101E500049815A816B817C81413AF6E85F07F1E064
:101E60006F07710508F041C284E690E00E941208F5
:101E700064E670E080E090E036C249E050E06EEA4F
:101E800071E080EC93E00E942E18892BB9F50E9436
:101E9000CE0787E691E00E94300AF70181917F0129
:101EA0000E943D0AF8EFEF16F3E0FF06B1F78FE668
:101EB00091E00E94300A68EC70E080E090E00E94BF
:101EC00074026DE08FE094E00E94720864EF71E0AC
:101ED00080E090E00E94740288EB91E00E94300A5A
:101EE00080E090E00E94C605682F70E080E090E0FE
:101EF0004AE00E94480A8CE891E0D5C149E050E0F0
:101F000064EC71E080EC93E00E942E18892BA9F517
:101F10000E94CE0787E691E00E94300AF701819186
:101F20007F010E943D0AF8EFEF16F3E0FF06B1F7DC
:101F30008FE691E00E94300A68EC70E080E090E06B
:101F40000E9474026DE08FE094E00E94720864EFDA
:101F500071E080E090E00E9474028EEC91E00E94BB
:101F6000300A68EC70E080E090E00E9486074AE06A
:101F70000E94480A8CED91E096C149E050E06FED77
:101F800071E080EC93E00E942E18892BA9F50E9445
:101F9000CE0787E691E00E94300AF70181917F0128
:101FA0000E943D0AF8EFEF16F3E0FF06B1F78FE667
:101FB00091E00E94300A68EC70E080E090E00E94BE
:101FC00074026DE08FE094E00E94720864EF71E0AB
:101FD00080E090E00E94740289EE91E00E94300A55
:101FE00064E670E080E090E00E9486074AE00E948C
:101FF000480A87EF91E057C149E050E06FEF71E088
:1020000080EC93E00E942E18892BA9F049E050E063
:1020100069E072E080EC93E00E942E18892B59F061
:1020200049E050E063E172E080EC93E00E942E18FA
:10203000892B09F0C4C08091C703813331F08091AE
:10204000C703823309F06CC03CC01092BF031092EA
:10205000BE03F8ECEF2EF3E0FF2EF70181917F0134
:102060008B528F3028F03092BF032092BE030BC0FA
:1020700064E170E080E090E00E947402F6EDEF16FB
:10208000F3E0FF0651F78091BE039091BF03892BC7
:10209000B1F6E8E7EE2EF12CF701E05BFC4F608132
:1020A000C7010E94C40564E170E080E090E00E94F6
:1020B00074028FEFE81AF80AE6E8EE16F10461F709
:1020C000BECF1092BF031092BE0378ECE72E73E0F0
:1020D000F72EF70181917F018B528F3078F130928A
:1020E000BF032092BE038091BE039091BF03892B52
:1020F000B9F467E8E62EF12CF701EF5BFC4F608145
:10210000C7010E94C40564E170E080E090E00E9495
:1021100074028FEFE81AF80AE5E9EE16F10461F7A8
:102120008091C703833309F0E0C01092BF0310927F
:10213000BE0358ECE52E53E0F52E18C064E170E0C4
:1021400080E090E00E947402F6EDEF16F3E0FF06E7
:1021500009F0BFCFC8CF64E170E080E090E00E945A
:102160007402F6EDEF16F3E0FF0651F0F7018191EE
:102170007F018B528F3078F33092BF032092BE03E1
:102180008091BE039091BF03892B09F0AEC046E950
:10219000E42EF12CF701EE5CFC4F6081C7010E9438
:1021A000C40564E170E080E090E00E9474028FEF6B
:1021B000E81AF80AE4EAEE16F10461F796C04CE07A
:1021C00050E06DE172E080EC93E00E942E18892BC4
:1021D00009F08BC00E94CE0787E691E00E94300A8A
:1021E000F70181917F010E943D0AF8EFEF16F3E0BD
:1021F000FF06B1F78FE691E00E94300A68EC70E0CC
:1022000080E090E00E9474026DE08FE094E00E9414
:10221000720864EF71E080E090E00E9474028AE24C
:1022200092E00E94300A38E7E32EF12CC7010E94A9
:10223000C605682F8FE094E00E9472088FEFE81ABD
:10224000F80AE6E8EE16F10489F782E392E00E94CC
:10225000300A27E8E22EF12CC7010E94C605682F3C
:102260008FE094E00E947208FFEFEF1AFF0A85E901
:10227000E816F10489F782E392E00E94300A96E9B9
:10228000E92EF12CC7010E94C605682F8FE094E06B
:102290000E947208EFEFEE1AFE0AF4EAEF16F1045C
:1022A00089F789E492E00E94300A6AE18FE094E0C5
:1022B0000E94720868EE73E080E090E00E94740271
:1022C0008EE891E00E94300A64EF71E080E090E0D7
:1022D0000E9474026DE08FE094E00E94720864EF47
:1022E00071E080E090E00E9474021092BD031092B1
:1022F000BC0310920E0410920D0410930101009380
:10230000000168EE73E080E090E00E947402109299
:10231000BB031092BA030E94C80520E030E0A90177
:102320006091B6037091B7038091B8039091B9039F
:102330000E94781818160CF10E947409BC0180E004
:1023400090E0A50194010E94A414CA01B9010E9461
:102350007D186093B6037093B7038093B80390938E
:10236000B9038091BA039091BB0301969093BB038C
:102370008093BA0306970CF487C0C090B403D09042
:10238000B5030D2C000CEE08FF08C701B6010E9432
:102390007F182091B6033091B7034091B803509154
:1023A000B9030E94E0142B013C016093B6037093C3
:1023B000B7038093B8039093B9036091B003709111
:1023C000B1038091B2039091B3030E947D189B01E9
:1023D000AC01C301B2010E94DE180E94C6156093D1
:1023E000090470930A0480930B0490930C04A701D2
:1023F00096010E94A414CA01B9010E947D1860933D
:10240000050470930604809307049093080420E069
:1024100030E048EC52E40E94DE180E94C61560933A
:10242000010470930204809303049093040428EE43
:1024300033E040E050E00E94A414CA01B9010E94B8
:102440007D186B017C016093FD037093FE03809304
:10245000FF039093000480E090E00E94C605682F7F
:1024600070E07093FC036093FB03072E000C880B55
:10247000990B0E947F189B01AC01C701B6010E9415
:102480007818181644F485C062E370E080E090E0AC
:102490000E94740242CF8091F9039091FA03892B34
:1024A00009F077C01092BB031092BA0383E0E82EC4
:1024B000F12C0E94CE0787E691E00E94300AC0907E
:1024C000BA03D090BB03360188E7680E711CE5E8BB
:1024D000CE0ED11CC614D70464F0C3010E94C605F9
:1024E000682F8FE094E00E947208FFEF6F1A7F0A56
:1024F000F1CF8FE691E00E94300A68EC70E080E056
:1025000090E00E9474026DE08FE094E00E947208F7
:1025100064EF71E080E090E00E94740285E392E055
:102520000E94300A6AE18FE094E00E947208809174
:10253000BA039091BB030F969093BB038093BA03A9
:1025400068EB7BE080E090E00E94740281E0E81A92
:10255000F10809F0AECF61E081E090E00E94C4058F
:102560003092FA032092F9038EE891E00E94300A3B
:1025700064EF71E080E090E00E9474026DE08FE013
:1025800094E00E94720864EF71E080E090E00E94A5
:1025900074026091FB037091FC03072E000C880B02
:1025A000990B0E947F189B01AC016091FD03709113
:1025B000FE038091FF03909100040E94F51587FDB2
:1025C00005C060E081E090E00E94C4050E94A50380
:1025D00059CACF93DF93109212041092110488EE1F
:1025E00093E0A0E0B0E08093130490931404A093D0
:1025F0001504B09316042CE031E0309310042093BE
:102600000F0425EC30E030931C0420931B0424ECD1
:1026100030E030931E0420931D0420EC30E0309312
:10262000200420931F0421EC30E0309322042093F7
:10263000210422EC30E0309324042093230426EC80
:1026400030E0309326042093250410922804109241
:10265000290410922A0410922B041092B9051092AA
:10266000B8058093BA059093BB05A093BC05B093C1
:10267000BD052CE131E03093B7052093B6051092EB
:102680009A051092990580939B0590939C05A093C1
:102690009D05B0939E058CE291E090939805809300
:1026A00097051092AE051092AD051092B0051092EC
:1026B000AF051092B2051092B1051092B4051092B8
:1026C000B3056091B5056E7F6D7F6093B505669526
:1026D000617081E0682789E00E940302E7EBF0E087
:1026E0002491E3EAF0E08491882399F090E0880F48
:1026F000991FFC01EA57FF4FA591B491FC01E458E2
:10270000FF4F859194918FB7F894EC91E22BEC9365
:102710008FBFE7EBF0E0E491E093A705E3EAF0E098
:10272000E491F0E0EE0FFF1FE458FF4F8591949184
:102730009093A9058093A805E6EBF0E02491E2EAE6
:10274000F0E084918823C1F090E0880F991FFC018C
:10275000EA57FF4FC591D491FC01E458FF4FA59172
:10276000B4919FB7F8948881E22FE0958E238883F7
:102770008C91E823EC939FBF8091B50581FD04C047
:1027800061E088E00E94030288E08093A305E6EB05
:10279000F0E0E491E093A405E2EAF0E0E491F0E0F7
:1027A000EE0FFF1FE057FF4F859194919093A60580
:1027B0008093A505109292051092910510929405B0
:1027C00010929305109296051092950540E050E006
:1027D0006BE871E081E995E00E94E00810928C05B9
:1027E00010928B0510928E0510928D051092900517
:1027F00010928F0540E050E06BE871E08BE895E0C7
:102800000E94E008EAEBF0E0E491E0937D05E9EB5B
:10281000F0E0E491E0937E0586EA90E0FC012491EB
:10282000E22FF0E0EE0FFF1FE458FF4F25913491A7
:102830003093800520937F05E5EAF0E0E491F0E035
:10284000EE0FFF1FE057FF4F259134913093820523
:1028500020938105FC018491E82FF0E0EE0FFF1F2B
:10286000EA57FF4F85919491909384058093830557
:102870008DE89FE690938605809385058FE1809390
:102880006C05CFE0C0936D0562E070E08FE190E0F1
:102890000E94FF1590936F0580936E0561E070E0D4
:1028A0008FE190E00E94FF15909371058093700571
:1028B00061E070E08FE190E00E94FF159093730556
:1028C00080937205C0937405109275051092760579
:1028D000109277051092780520E080916C052817FA
:1028E000E0F4822F90E0E0917005F0917105E80F1F
:1028F000F91F2083E0917205F0917305E80FF91F2D
:102900002083880F991FE0916E05F0916F05E80F05
:10291000F91F118210822F5FE0CFDF91CF910895D0
:1029200097FB072E16F4009407D077FD09D00E947C
:10293000C61407FC05D03EF4909581959F4F0895ED
:10294000709561957F4F0895A1E21A2EAA1BBB1BBB
:10295000FD010DC0AA1FBB1FEE1FFF1FA217B3076B
:10296000E407F50720F0A21BB30BE40BF50B661F81
:10297000771F881F991F1A9469F760957095809545
:1029800090959B01AC01BD01CF010895AA1BBB1B13
:1029900051E107C0AA1FBB1FA617B70710F0A61B5F
:1029A000B70B881F991F5A95A9F780959095BC0180
:1029B000CD010895EE0FFF1F0590F491E02D0994CD
:1029C0005058BB27AA270E94F8140C9462190E9441
:1029D000541938F00E945B1920F039F49F3F19F424
:1029E00026F40C9451190EF4E095E7FB0C944B1966
:1029F000E92F0E94731958F3BA1762077307840707
:102A0000950720F079F4A6F50C9495190EF4E0954D
:102A10000B2EBA2FA02D0B01B90190010C01CA0198
:102A2000A0011124FF27591B99F0593F50F4503E43
:102A300068F11A16F040A22F232F342F4427585F35
:102A4000F3CF469537952795A795F0405395C9F74D
:102A50007EF41F16BA0B620B730B840BBAF0915005
:102A6000A1F0FF0FBB1F661F771F881FC2F70EC0A4
:102A7000BA0F621F731F841F48F487957795679577
:102A8000B795F7959E3F08F0B0CF9395880F08F063
:102A90009927EE0F9795879508950E9461150C94DC
:102AA00062190E945B1958F00E94541940F029F4F1
:102AB0005F3F29F00C944B1951110C9496190C940A
:102AC00051190E94731968F39923B1F3552391F3B7
:102AD000951B550BBB27AA2762177307840738F08D
:102AE0009F5F5F4F220F331F441FAA1FA9F335D0EA
:102AF0000E2E3AF0E0E832D091505040E695001C9E
:102B0000CAF72BD0FE2F29D0660F771F881FBB1F57
:102B1000261737074807AB07B0E809F0BB0B802D35
:102B2000BF01FF2793585F4F3AF09E3F510578F061
:102B30000C944B190C9496195F3FE4F3983ED4F330
:102B4000869577956795B795F7959F5FC9F7880F35
:102B5000911D9695879597F90895E1E0660F771F87
:102B6000881FBB1F621773078407BA0720F0621B18
:102B7000730B840BBA0BEE1F88F7E09508950E9443
:102B8000C6156894B1110C94961908950E947B198A
:102B900088F09F5798F0B92F9927B751B0F0E1F01E
:102BA000660F771F881F991F1AF0BA95C9F714C0CE
:102BB000B13091F00E949519B1E008950C949519E7
:102BC000672F782F8827B85F39F0B93FCCF3869507
:102BD00077956795B395D9F73EF490958095709564
:102BE00061957F4F8F4F9F4F08950E94BA1808F448
:102BF0008FEF08950E94BA18880B990B08950F93D0
:102C00001F93CF93DF93869F8001879F100D969F20
:102C1000100D1124C8010E941B16EC01009729F029
:102C2000A80160E070E00E942018CE01DF91CF91F2
:102C30001F910F910895CF93DF938230910510F487
:102C400082E090E0E091C405F091C50520E030E01D
:102C5000C0E0D0E0309711F1408151814817590709
:102C6000C0F04817590761F482819381209719F0C9
:102C70009B838A832BC09093C5058093C40526C08F
:102C80002115310519F04217530718F49A01BE01B6
:102C9000DF01EF010280F381E02DDCCF211531054A
:102CA00009F1281B390B2430310590F412968D91CF
:102CB0009C9113976115710521F0FB019383828329
:102CC00004C09093C5058093C405FD01329644C0AD
:102CD000FD01E20FF31F81939193225031092D934F
:102CE0003C933AC02091C2053091C305232B41F497
:102CF00020910401309105013093C3052093C20552
:102D000020910201309103012115310541F42DB7C5
:102D10003EB74091060150910701241B350BE0910D
:102D2000C205F091C305E217F307A0F42E1B3F0B79
:102D30002817390778F0AC014E5F5F4F241735072D
:102D400048F04E0F5F1F5093C3054093C205819317
:102D5000919302C0E0E0F0E0CF01DF91CF910895C0
:102D60000F931F93CF93DF93009709F48CC0FC015E
:102D70003297138212820091C4051091C505011586
:102D8000110581F420813181820F931F2091C205AA
:102D90003091C3052817390779F5F093C305E093FF
:102DA000C20571C0D80140E050E0AE17BF0750F433
:102DB00012962D913C911397AD012115310509F122
:102DC000D901F3CF9D01DA013383228360817181C0
:102DD000860F971F8217930769F4EC0128813981C8
:102DE000260F371F2E5F3F4F318320838A819B81BF
:102DF00093838283452B29F4F093C505E093C405A2
:102E000042C01396FC93EE931297ED0149915991AC
:102E10009E01240F351FE217F30771F48081918121
:102E2000840F951F029611969C938E9382819381B5
:102E300013969C938E931297E0E0F0E0D8011296DF
:102E40008D919C911397009719F0F8018C01F6CFA2
:102E50008D919C9198012E5F3F4F820F931F20917F
:102E6000C2053091C3052817390769F4309729F452
:102E70001092C5051092C40502C0138212821093ED
:102E8000C3050093C205DF91CF911F910F91089563
:102E9000A0E0B0E0EEE4F7E10C94B619EC01009785
:102EA00021F4CB010E941B16B8C0FC01E60FF71FEE
:102EB0009C0122503109E217F30708F4ACC0D90194
:102EC0000D911C91119706171707B0F005301105E9
:102ED00008F49FC0C80104978617970708F499C0A3
:102EE00002501109061B170B019311936D937C93EC
:102EF000CF010E94B0168DC05B01A01AB10A4C012F
:102F0000800E911EA091C405B091C50540E050E02F
:102F1000E12CF12C109709F44AC0A815B905D1F598
:102F20006D907C901197630182E0C80ED11CCA1489
:102F3000DB0480F1A3014A195B096A0182E0C80E33
:102F4000D11C1296BC9012971396AC91B5E0CB169B
:102F5000D10440F0B282A38351834083D9016D93A1
:102F60007C930AC00E5F1F4FC301800F911FF901B0
:102F700091838083EB2DFA2FE114F10431F0D70116
:102F80001396FC93EE93129744C0F093C505E0931B
:102F9000C4053FC08D919C9111974817590708F4BB
:102FA000AC017D0112960D90BC91A02DB3CF809104
:102FB000C2059091C30588159905E1F44617570796
:102FC000C8F48091020190910301009741F48DB7FC
:102FD0009EB74091060150910701841B950BE8179D
:102FE000F907C8F4F093C305E093C205F9017183B2
:102FF00060830FC0CB010E941B167C01009759F023
:10300000A801BE010E941718CE010E94B016C70188
:1030100004C0CE0102C080E090E0CDB7DEB7EEE0A4
:103020000C94D21981E090E0F8940C94E919FB011A
:10303000DC0102C001900D9241505040D8F7089534
:10304000DC0101C06D9341505040E0F70895FB0151
:10305000DC0101900D920020E1F70895FB01DC01F5
:103060004150504030F08D910190801919F40020AA
:10307000B9F7881B990B08951F93FC01992788279E
:10308000BC01E89411911032E9F3193010F01E30B0
:10309000C8F31B3251F01D3249F4689406C00E94F7
:1030A0006318610F711D811D911D119110531A300C
:1030B000B0F33EF490958095709561957F4F8F4F5A
:1030C0009F4F1F910895592F482F372F262F660F96
:1030D000771F881F991F660F771F881F991F620F20
:1030E000731F841F951F660F771F881F991F0895F0
:1030F0000E94BA1808F481E00895E89409C097FB8B
:103100003EF490958095709561957F4F8F4F9F4FBE
:103110009923A9F0F92F96E9BB279395F695879502
:1031200077956795B795F111F8CFFAF4BB0F11F4C5
:1031300060FF1BC06F5F7F4F8F4F9F4F16C088236C
:1031400011F096E911C0772321F09EE8872F762FA2
:1031500005C0662371F096E8862F70E060E02AF0E3
:103160009A95660F771F881FDAF7880F96958795CF
:1031700097F90895990F0008550FAA0BE0E8FEEFA4
:1031800016161706E807F907C0F012161306E4072B
:10319000F50798F0621B730B840B950B39F40A2624
:1031A00061F0232B242B252B21F408950A2609F402
:1031B000A140A6958FEF811D811D08950E94F118F1
:1031C0000C9462190E94541938F00E945B1920F087
:1031D000952311F00C944B190C94511911240C9453
:1031E00096190E94731970F3959FC1F3950F50E0E3
:1031F000551F629FF001729FBB27F00DB11D639FA9
:10320000AA27F00DB11DAA1F649F6627B00DA11D4E
:10321000661F829F2227B00DA11D621F739FB00DF4
:10322000A11D621F839FA00D611D221F749F332764
:10323000A00D611D231F849F600D211D822F762FFD
:103240006A2F11249F5750409AF0F1F088234AF0DA
:10325000EE0FFF1FBB1F661F771F881F9150504046
:10326000A9F79E3F510580F00C944B190C949619C8
:103270005F3FE4F3983ED4F3869577956795B795CD
:10328000F795E7959F5FC1F7FE2B880F911D9695E7
:10329000879597F9089597F99F6780E870E060E057
:1032A00008959FEF80EC089500240A9416161706DF
:1032B00018060906089500240A9412161306140627
:1032C00005060895092E0394000C11F4882352F08A
:1032D000BB0F40F4BF2B11F460FF04C06F5F7F4F42
:1032E0008F4F9F4F089557FD9058440F551F59F029
:1032F0005F3F71F04795880F97FB991F61F09F3FE3
:1033000079F087950895121613061406551FF2CF0B
:103310004695F1DF08C0161617061806991FF1CF5B
:1033200086957105610508940895E894BB27662782
:103330007727CB0197F90895F999FECF92BD81BD0A
:10334000F89A992780B50895262FF999FECF1FBACC
:1033500092BD81BD20BD0FB6F894FA9AF99A0FBEBE
:10336000019608952F923F924F925F926F927F92B3
:103370008F929F92AF92BF92CF92DF92EF92FF9285
:103380000F931F93CF93DF93CDB7DEB7CA1BDB0B31
:103390000FB6F894DEBF0FBECDBF09942A883988D6
:1033A00048885F846E847D848C849B84AA84B984DD
:1033B000C884DF80EE80FD800C811B81AA81B981E9
:1033C000CE0FD11D0FB6F894DEBF0FBECDBFED01FD
:1033D000089510E0C2E6D0E004C0FE010E94DA14B5
:0C33E0002196C336D107C9F7F894FFCF3F
:1033EC0004000000C60580000000000072083B08C5
:1033FC00AE008D00A000E101000000000901F50005
:10340C00EE00EB00E800E7000000000033013B0891
:10341C0087019F011A0132012B3233340041542BA6
:10342C00434E4D493D312C322C302C302C30004148
:10343C00542B434D47463D31004154453000442EFA
:10344C006C6576656C2A0041542B434D47533D22E5
:10345C000044494553454C204C4556454C3A2000B8
:10346C00204C6974657273002C2020002500415497
:10347C002B434D47443D312C3400442E736574006E
:10348C00442E5473657400442E4C73657400442EA2
:10349C005669657754482A005448524553484F4C56
:1034AC00443A2000442E56696577544B2A00544107
:1034BC004E4B204845494748543A2000434D004460
:1034CC002E56696577544C2A0054414E4B204C497A
:1034DC00544552533A2000204C4954455253004411
:1034EC002E41646D696E312B00442E41646D696E02
:1034FC00322B00442E41646D696E332B00442E56E2
:10350C0069657741646D696E2A0041444D494E3AB4
:10351C0020002C2000504C45415345205245464933
:10352C004C4C2044494553454C2E006E616E00694D
:08353C006E66006F7666000068
:107E0000112484B714BE81FFF0D085E080938100F7
:107E100082E08093C00088E18093C10086E0809377
:107E2000C20080E18093C4008EE0C9D0259A86E02C
:107E300020E33CEF91E0309385002093840096BBD3
:107E4000B09BFECF1D9AA8958150A9F7CC24DD24C4
:107E500088248394B5E0AB2EA1E19A2EF3E0BF2EE7
:107E6000A2D0813461F49FD0082FAFD0023811F036
:107E7000013811F484E001C083E08DD089C08234E0
:107E800011F484E103C0853419F485E0A6D080C0E4
:107E9000853579F488D0E82EFF2485D0082F10E0AE
:107EA000102F00270E291F29000F111F8ED06801E7
:107EB0006FC0863521F484E090D080E0DECF843638
:107EC00009F040C070D06FD0082F6DD080E0C81688
:107ED00080E7D80618F4F601B7BEE895C0E0D1E017
:107EE00062D089930C17E1F7F0E0CF16F0E7DF06D8
:107EF00018F0F601B7BEE89568D007B600FCFDCFD4
:107F0000A601A0E0B1E02C9130E011968C91119780
:107F100090E0982F8827822B932B1296FA010C0160
:107F200087BEE89511244E5F5F4FF1E0A038BF0790
:107F300051F7F601A7BEE89507B600FCFDCF97BE46
:107F4000E89526C08437B1F42ED02DD0F82E2BD052
:107F50003CD0F601EF2C8F010F5F1F4F84911BD097
:107F6000EA94F801C1F70894C11CD11CFA94CF0C13
:107F7000D11C0EC0853739F428D08EE10CD085E9AC
:107F80000AD08FE07ACF813511F488E018D01DD067
:107F900080E101D065CF982F8091C00085FFFCCF94
:107FA0009093C60008958091C00087FFFCCF809118
:107FB000C00084FD01C0A8958091C6000895E0E648
:107FC000F0E098E1908380830895EDDF803219F02E
:107FD00088E0F5DFFFCF84E1DECF1F93182FE3DFCA
:107FE0001150E9F7F2DF1F91089580E0E8DFEE27F6
:047FF000FF270994CA
:027FFE00040479
:0400000300007E007B
:00000001FF
