:100000000C9462000C948A000C948A000C948A0070
:100010000C948A000C948A000C948A000C94CD03F2
:100020000C948A000C948A000C948A000C948A0028
:100030000C948A000C948A000C948A000C948A0018
:100040000C9483030C948A000C9451030C942B039E
:100050000C948A000C948A000C948A000C948A00F8
:100060000C948A000C948A00000000080002010031
:100070000003040700000000000000000000000072
:10008000240027002A000000000023002600290089
:1000900000000000250028002B00040404040404D0
:1000A0000404020202020202030303030303010227
:1000B00004081020408001020408102001020408F6
:1000C0001020F40311241FBECFEFD8E0DEBFCDBF58
:1000D00011E0A0E0B1E0EAE3FFE002C005900D927C
:1000E000A23BB107D9F722E0A2EBB1E001C01D921B
:1000F000A538B207E1F710E0C2E6D0E004C02197CE
:10010000FE010E948207C136D107C9F70E9461042F
:100110000C949B070C94000090E0FC01E255FF4F0B
:100120002491FC01E656FF4F8491882399F090E0DA
:10013000880F991FFC01E458FF4FA591B491FC0171
:10014000E057FF4F859194918FB7F894EC91E22B93
:10015000EC938FBF0895CF92DF92EF92FF920F93AF
:100160001F93CF93DF936C017A018B01C0E0D0E045
:10017000CE15DF0589F0D8016D918D01D601ED9185
:10018000FC910190F081E02DC6010995892B11F4B5
:100190007E0102C02196ECCFC701DF91CF911F9164
:1001A0000F91FF90EF90DF90CF900895FC01918D1B
:1001B000828D981761F0828DDF01A80FB11D5D96C9
:1001C0008C91928D9F5F9F73928F90E008958FEF37
:1001D0009FEF0895FC01918D828D981731F0828DEB
:1001E000E80FF11D858D90E008958FEF9FEF089542
:1001F000FC01918D228D892F90E0805C9F4F821BA6
:1002000091098F739927089586ED91E00E94F80077
:1002100021E0892B09F420E0822F0895FC01848DD0
:10022000DF01A80FB11DA35ABF4F2C91848D90E020
:1002300001968F739927848FA689B7892C93A089FB
:10024000B1898C9180648C93938D848D981306C0B2
:100250000288F389E02D80818F7D80830895EF925D
:10026000FF920F931F93CF93DF93EC0181E0888F70
:100270009B8D8C8D981305C0E889F989808185FD57
:1002800024C0F62E0B8D10E00F5F1F4F0F73112748
:10029000E02E8C8DE8120CC00FB607FCFACFE8896F
:1002A000F989808185FFF5CFCE010E940E01F1CF43
:1002B0008B8DFE01E80FF11DE35AFF4FF0820B8F8B
:1002C000EA89FB898081806207C0EE89FF896083AB
:1002D000E889F98980818064808381E090E0DF9102
:1002E000CF911F910F91FF90EF900895CF93DF93DF
:1002F000EC01888D8823C9F0EA89FB89808185FD1E
:1003000005C0A889B9898C9186FD0FC00FB607FC7E
:10031000F5CF808185FFF2CFA889B9898C9185FFBF
:10032000EDCFCE010E940E01E7CFDF91CF9108956E
:1003300090E0FC01E859FF4F3491FC01E255FF4F7A
:100340002491FC01E656FF4FE491EE2309F43BC0F3
:10035000332339F1333091F038F43130A9F03230B1
:1003600001F584B58F7D12C0373091F03830A1F09F
:100370003430B9F4809180008F7D03C0809180007B
:100380008F77809380000DC084B58F7784BD09C0BE
:100390008091B0008F7703C08091B0008F7D8093F3
:1003A000B000F0E0EE0FFF1FE057FF4FA591B491B2
:1003B0008FB7F894EC91611103C020952E2301C0F2
:1003C0002E2B2C938FBF08953FB7F8948091BD01D9
:1003D0009091BE01A091BF01B091C00126B5A89B2C
:1003E00005C02F3F19F00196A11DB11D3FBFBA2FC7
:1003F000A92F982F8827820F911DA11DB11DBC0127
:10040000CD0142E0660F771F881F991F4A95D1F7EB
:1004100008958F929F92AF92BF92CF92DF92EF9208
:10042000FF926B017C010E94E4014B015C01C1144D
:10043000D104E104F104F1F00E94E401DC01CB01FC
:1004400088199909AA09BB09883E9340A105B105FD
:1004500070F321E0C21AD108E108F10888EE880E95
:1004600083E0981EA11CB11CC114D104E104F10465
:1004700019F7DDCFFF90EF90DF90CF90BF90AF9056
:100480009F908F900895009769F0FC0101900020E3
:10049000E9F73197AF01481B590BBC0186ED91E09C
:1004A0000C94AB0080E090E008950C944302FF921E
:1004B0000F931F93CF93DF9386ED91E00E94F80096
:1004C000892B09F4BAC0C0E0D0E02FB7F89480912E
:1004D000B9019091BA01A091BB01B091BC012FBFAD
:1004E0008093DE019093DF01A093E001B093E101DE
:1004F000E091D601F091D7010680F781E02D86EDDD
:1005000091E0099597FD0BC0FE01E05FFE4F208151
:10051000022E000C330B8217930731F559C02FB709
:10052000F8948091B9019091BA01A091BB01B0916A
:10053000BC012FBF4091DE015091DF016091E001CD
:100540007091E101841B950BA60BB70B4091DA016A
:100550005091DB016091DC017091DD0184179507FA
:10056000A607B70728F2A8CF209709F4AECF61E11C
:1005700071E09E0121503109F901E05FFE4F408199
:10058000042E000C550B84179507F1F42115310545
:1005900009F49BCFE0E1F1E040E050E0F1908B0105
:1005A000040F151FD8011C91F11641F04217530793
:1005B00009F48BCF6F5F7F4FE901DBCF4F5F5F4F58
:1005C0004217530758F3F2CF2115310599F77BCF26
:1005D0002196C330D10509F078CF61E08DE00E940B
:1005E000980168EE73E080E090E00E94090260E00C
:1005F0008DE00E94980186ED91E00E94F800892B21
:1006000009F45ACF86ED91E00E94D6002091D201E4
:100610003091D301A9014F5F5F4F5093D3014093B5
:10062000D201F901EF53FE4F80838A3221F781E036
:1006300090E09093D5018093D401DF91CF911F91E9
:100640000F91FF9008950E94040181110C945702AC
:1006500008950E9488071F920F920FB60F921124DF
:100660002F933F934F935F936F937F938F939F93BA
:10067000AF93BF93EF93FF9386ED91E00E940E013D
:10068000FF91EF91BF91AF919F918F917F916F916A
:100690005F914F913F912F910F900FBE0F901F9040
:1006A00018951F920F920FB60F9211242F938F93CC
:1006B0009F93EF93FF93E091E601F091E701808132
:1006C000E091EC01F091ED0182FD12C090818091EA
:1006D000EF018F5F8F732091F001821751F0E0914D
:1006E000EF01F0E0EA52FE4F958F8093EF0101C0D9
:1006F0008081FF91EF919F918F912F910F900FBE6D
:100700000F901F9018951F920F920FB60F92112401
:100710002F933F938F939F93AF93BF938091B90192
:100720009091BA01A091BB01B091BC013091B80188
:1007300023E0230F2D3720F40196A11DB11D05C024
:1007400026E8230F0296A11DB11D2093B8018093C6
:10075000B9019093BA01A093BB01B093BC01809101
:10076000BD019091BE01A091BF01B091C001019661
:10077000A11DB11D8093BD019093BE01A093BF0147
:10078000B093C001BF91AF919F918F913F912F91F5
:100790000F900FBE0F901F9018951F920F920FB6DB
:1007A0000F9211242F933F934F935F936F937F93F7
:1007B0008F939F93AF93BF93EF93FF93E091B60115
:1007C000F091B7010995FF91EF91BF91AF919F9182
:1007D0008F917F916F915F914F913F912F910F90EA
:1007E0000FBE0F901F901895E6EDF1E01382128274
:1007F00088EE93E0A0E0B0E084839583A683B7837E
:1008000084E091E09183808385EC90E095878487F4
:1008100084EC90E09787868780EC90E0918B808BCA
:1008200081EC90E0938B828B82EC90E0958B848BB3
:1008300086EC90E0978B868B118E128E138E148E21
:10084000EAEBF0E0E491A3E7B2E01496EC9314979E
:10085000E9EBF0E0E4911596EC93159786EA90E0C9
:10086000FC012491E22FF0E0EE0FFF1FE057FF4F55
:100870002591349117963C932E931697E5EAF0E074
:10088000E491F0E0EE0FFF1FEA57FF4F25913491FE
:1008900019963C932E931897FC018491E82FF0E071
:1008A000EE0FFF1FE458FF4F859194911B969C9388
:1008B0008E931A978DE89FE61D969C938E931C97B6
:1008C0000895CF93DF93CDB7DEB7A1970FB6F89415
:1008D000DEBF0FBECDBF789484B5826084BD84B581
:1008E000816084BD85B5826085BD85B5816085BD2B
:1008F00080916E00816080936E00109281008091E3
:10090000810082608093810080918100816080936A
:100910008100809180008160809380008091B1008F
:1009200084608093B1008091B00081608093B000BA
:1009300080917A00846080937A0080917A0082604E
:1009400080937A0080917A00816080937A00809110
:100950007A00806880937A001092C100E091E601ED
:10096000F091E70182E08083E091E201F091E30100
:100970001082E091E401F091E5018FEC8083109208
:10098000EE01E091EA01F091EB0186E08083E091D5
:10099000E801F091E901808180618083E091E801C4
:1009A000F091E901808188608083E091E801F09115
:1009B000E901808180688083E091E801F091E9019C
:1009C00080818F7D80838DE00E948C0083E00E9477
:1009D0008C0084E00E948C0085E00E948C0060ED19
:1009E00077E080E090E00E94090268EE73E080E02A
:1009F00090E00E94090284E191E00E94550268ECB7
:100A000070E080E090E00E9409026DE086ED91E0E8
:100A10000E942F0164EF71E080E090E00E940902E3
:100A200086E291E00E94550268EC70E080E090E080
:100A30000E9409026DE086ED91E00E942F0164EFB3
:100A400071E080E090E00E94090280E391E00E9462
:100A5000550268EC70E080E090E00E9409026DE0D1
:100A600086ED91E00E942F0164EF71E080E090E05C
:100A70000E94090289E491E00E9455026AE186ED34
:100A800091E00E942F0164EF71E080E090E00E940D
:100A900009028AE0C82ED12CE12CF12C9BE0292EF2
:100AA000312C29E3422E512C612C712C8091D401E0
:100AB0009091D501019709F037C145E050E069E612
:100AC00071E081EC91E00E948D07892B09F0B1C0A3
:100AD00061E085E00E94980161E08DE00E9498014C
:100AE00068EE73E080E090E00E94090260E08DE033
:100AF0000E94980168EC70E080E090E00E9409029A
:100B000084E191E00E94550268EC70E080E090E0A2
:100B10000E9409026DE086ED91E00E942F0164EFD2
:100B200071E080E090E00E94090286E291E00E947C
:100B3000550268EC70E080E090E00E9409026DE0F0
:100B400086ED91E00E942F0164EF71E080E090E07B
:100B50000E94090280E391E00E94550268EC70E077
:100B600080E090E00E9409026DE086ED91E00E9435
:100B70002F0164EF71E080E090E00E9409028FE6AF
:100B800091E00E9455022091D0013091D10149019C
:100B9000330FAA08BB08B7FE26C0E091D601F0913A
:100BA000D7010190F081E02D6DE286ED91E009958D
:100BB00022273327A901281939094A095B0919A2F3
:100BC0008E010F5D1F4FCA01B901A70196010E9456
:100BD0006007605DF80162938F01211531054105C1
:100BE000510589F715C0A501940119A28E010F5D69
:100BF0001F4FCA01B901A70196010E946007605DFD
:100C0000F80162938F01211531054105510589F7DE
:100C1000C8010E94430287E791E00E9455026AE101
:100C200086ED91E00E942F0164EF71E080E090E09A
:100C30006BC046E050E06AE771E081EC91E00E9411
:100C40008D07892B09F458C045E050E061E871E058
:100C500081EC91E00E948D07892B11F461E00BC0BB
:100C600047E050E068E871E081EC91E00E948D0778
:100C7000892B19F460E083E041C048E050E060E96E
:100C800071E081EC91E00E948D07892B11F461E005
:100C90000BC049E050E069E971E081EC91E00E940D
:100CA0008D07892B19F460E084E028C046E050E00D
:100CB00063EA71E081EC91E00E948D07892B51F489
:100CC00061E084E00E94980161E083E00E94980165
:100CD00061E013C047E050E06AEA71E081EC91E026
:100CE0000E948D07892B91F460E084E00E949801B6
:100CF00060E083E00E94980160E085E00E94980136
:100D000068EC70E080E090E00E9409021092D5014A
:100D10001092D4011092D3011092D20168EE73E0C8
:100D200080E090E00E940902E0917D02F0917E0255
:100D3000908180917702892B8083E0917902F091F4
:100D40007A02908180917702809589238083C10106
:100D50000197F1F7E0917902F0917A029081809108
:100D60007702892B808383E290E00197F1F7E0918D
:100D70007902F0917A02908180917702809589239F
:100D80008083E0917D02F0917E02908180917702D4
:100D9000809589238083E0917B02F0917C02908191
:100DA00080917802892309F075C00E94E4012091A6
:100DB0007F0230918002890120E030E00855194E11
:100DC0002F4F3F4FDC01CB01800F911FA21FB31F9C
:100DD0008093810290938202A0938302B093840255
:100DE000E0917B02F0917C029081809178028923CE
:100DF00081F40E94E401009181021091820220910D
:100E0000830230918402061717072807390740F735
:100E100041C00E94E40120917F0230918002DC01F8
:100E2000CB01820F931FA11DB11D8093810290936E
:100E30008202A0938302B0938402E0917B02F0913E
:100E40007C02908180917802892381F00E94E401E4
:100E500000918102109182022091830230918402DC
:100E6000061717072807390740F714C00E94E40146
:100E700020917F0230918002A901455051092091B3
:100E8000810230918202FA01E21BF30BAF01460F9F
:100E9000571F02C040E050E0BA0180E090E0A3019B
:100EA00092010E9460073093D1012093D00164EF3A
:100EB00071E080E090E00E9409020E942303F6CDD9
:100EC000A1E21A2EAA1BBB1BFD010DC0AA1FBB1F4E
:100ED000EE1FFF1FA217B307E407F50720F0A21BC0
:100EE000B30BE40BF50B661F771F881F991F1A942D
:100EF00069F760957095809590959B01AC01BD0157
:100F0000CF010895EE0FFF1F0590F491E02D099495
:100F100081E090E0F8940C949B07FB01DC014150C8
:100F2000504030F08D910190801919F40020B9F7EC
:0A0F3000881B990B0895F894FFCF79
:100F3A00000000002F01AB00F800D600EA0076019D
:100F4A0023412E0041542B434E4D493D312C322C26
:100F5A00302C302C300041542B434D47463D310054
:100F6A0041542B434D47533D222B323334383035CD
:100F7A0037343731333037220057454C434F4D45CC
:100F8A00204C4556454C2053454E53494E47204127
:100F9A004354495641544544006C6576656C004C8F
:100FAA004556454C3A2000636D007476206F66669C
:100FBA000066616E206F6E0066616E206F66660065
:100FCA006C69676874206F6E006C69676874206F5B
:100FDA00666600616C6C206F6E00616C6C206F66D7
:020FEA0066009F
:107E0000112484B714BE81FFF0D085E080938100F7
:107E100082E08093C00088E18093C10086E0809377
:107E2000C20080E18093C4008EE0C9D0259A86E02C
:107E300020E33CEF91E0309385002093840096BBD3
:107E4000B09BFECF1D9AA8958150A9F7CC24DD24C4
:107E500088248394B5E0AB2EA1E19A2EF3E0BF2EE7
:107E6000A2D0813461F49FD0082FAFD0023811F036
:107E7000013811F484E001C083E08DD089C08234E0
:107E800011F484E103C0853419F485E0A6D080C0E4
:107E9000853579F488D0E82EFF2485D0082F10E0AE
:107EA000102F00270E291F29000F111F8ED06801E7
:107EB0006FC0863521F484E090D080E0DECF843638
:107EC00009F040C070D06FD0082F6DD080E0C81688
:107ED00080E7D80618F4F601B7BEE895C0E0D1E017
:107EE00062D089930C17E1F7F0E0CF16F0E7DF06D8
:107EF00018F0F601B7BEE89568D007B600FCFDCFD4
:107F0000A601A0E0B1E02C9130E011968C91119780
:107F100090E0982F8827822B932B1296FA010C0160
:107F200087BEE89511244E5F5F4FF1E0A038BF0790
:107F300051F7F601A7BEE89507B600FCFDCF97BE46
:107F4000E89526C08437B1F42ED02DD0F82E2BD052
:107F50003CD0F601EF2C8F010F5F1F4F84911BD097
:107F6000EA94F801C1F70894C11CD11CFA94CF0C13
:107F7000D11C0EC0853739F428D08EE10CD085E9AC
:107F80000AD08FE07ACF813511F488E018D01DD067
:107F900080E101D065CF982F8091C00085FFFCCF94
:107FA0009093C60008958091C00087FFFCCF809118
:107FB000C00084FD01C0A8958091C6000895E0E648
:107FC000F0E098E1908380830895EDDF803219F02E
:107FD00088E0F5DFFFCF84E1DECF1F93182FE3DFCA
:107FE0001150E9F7F2DF1F91089580E0E8DFEE27F6
:047FF000FF270994CA
:027FFE00040479
:0400000300007E007B
:00000001FF
