:100000000C9463000C948B000C948B000C941D06D4
:100010000C941D060C941D060C948B000C94F60594
:100020000C948B000C948B000C948B000C948B0024
:100030000C948B000C948B000C948B000C948B0014
:100040000C947E040C948B000C94A5020C947F02FB
:100050000C948B000C948B000C948B000C948B00F4
:100060000C94C8040C948B000000000800020100EE
:100070000003040700000000000000000000000072
:10008000250028002B0000000000240027002A0083
:1000900000000000230026002900040404040404D6
:1000A0000404020202020202030303030303010227
:1000B00004081020408001020408102001020408F6
:1000C00010209511FE0A11241FBECFEFD8E0DEBF2D
:1000D000CDBF12E0A0E0B1E0EEE0F1E302C0059098
:1000E0000D92AC33B107D9F725E0ACE3B2E001C023
:1000F0001D92A837B207E1F710E0C2E6D0E004C0D5
:100100002197FE010E947213C136D107C9F70E94E0
:100110000E0B0C947A180C940000CF92DF92EF92A1
:10012000FF920F931F93CF93DF936C017A018B01A2
:10013000C0E0D0E0CE15DF0589F0D8016D918D01CA
:10014000D601ED91FC910190F081E02DC601099559
:10015000892B11F47E0102C02196ECCFC701DF91FB
:10016000CF911F910F91FF90EF90DF90CF90089566
:10017000FC01918D828D981759F0828DDF01A80FB7
:10018000B11D5D968C91928D9F5F928F90E0089546
:100190008FEF9FEF0895FC01918D828D981731F0BC
:1001A000828DE80FF11D858D90E008958FEF9FEF10
:1001B0000895FC01918D828D981B892F90E0089500
:1001C00087EC93E00E94D90021E0892B09F420E01C
:1001D000822F0895FC01848DDF01A80FB11DA35E5D
:1001E000BE4F2C91848D90E001968F739927848F58
:1001F000A689B7892C93A089B1898C9180648C934E
:10020000938D848D981306C00288F389E02D808138
:100210008F7D80830895EF92FF920F931F93CF936A
:10022000DF93EC0181E0888F9B8D8C8D981305C046
:10023000E889F989808185FD24C0F62E0B8D10E0B8
:100240000F5F1F4F0F731127E02E8C8DE8120CC02B
:100250000FB607FCFACFE889F989808185FFF5CFD1
:10026000CE010E94EA00F1CF8B8DFE01E80FF11D57
:10027000E35EFE4FF0820B8FEA89FB89808180620A
:1002800007C0EE89FF896083E889F98980818064ED
:10029000808381E090E0DF91CF911F910F91FF90DB
:1002A000EF900895CF93DF93EC01888D8823C9F0F8
:1002B000EA89FB89808185FD05C0A889B9898C916F
:1002C00086FD0FC00FB607FCF5CF808185FFF2CF0A
:1002D000A889B9898C9185FFEDCFCE010E94EA00F3
:1002E000E7CFDF91CF91089585ED8093BC00809199
:1002F000BC0084FDFCCF1092CB0208954091A50272
:10030000262F30E0240F311D21323105DCF42091FD
:10031000CB022430C9F4FC0180E090E0861758F449
:100320003091A5022191DC01AD57BD4FA30FB11D46
:100330002C930196F3CF8091A502680F6093A502DC
:1003400080E0089581E0089582E0089508958FEF98
:100350009FEF08958FEF9FEF08958091820290E0C4
:100360009195819591090895CF93DF9300D0CDB7F2
:10037000DEB7CB01642F49835A830E947E014981F5
:10038000842F5A81952F0F900F90DF91CF91089570
:10039000CF93DF931F92CDB7DEB7698361E0CE01C3
:1003A00001960E947E0181E090E00F90DF91CF9155
:1003B00008952091FC023091FD022817390771F44D
:1003C0009091FA028091FB02981741F0E091FA02B5
:1003D000F0E0E05CFD4F808190E008958FEF9FEFAB
:1003E000089508951F93CF93DF93DC015C962D91C0
:1003F0003C915D972115310539F481E090E0139629
:100400009C938E9312973DC05196ED91FC9152971B
:1004100050969C915097892F80951FB75E964C916E
:100420005E9741FB772770F941FD6095F894408114
:10043000772311F0492B01C048234083E90121971C
:10044000F1F748E0508160FF02C0592B01C05823EA
:100450005083E9012197F1F76695415099F7772389
:1004600021F090818923808303C08081982B908321
:100470001FBF5C968D919C915D970197F1F721E0EC
:1004800030E0C901DF91CF911F9108952091FC02C6
:100490003091FD022817390771F48091FB022091F9
:1004A000FA0290E0805C9F4F821B910960E470E04B
:1004B0000E942813089580E090E008952091FC02A6
:1004C0003091FD0228173907B9F49091FA02809112
:1004D000FB02981789F0E091FA02F0E0E05CFD4F32
:1004E00080812091FA0230E02F5F3F4F2F73332736
:1004F0002093FA0290E008958FEF9FEF08951F92E6
:100500000F920FB60F9211242F933F934F935F9347
:100510006F937F938F939F93AF93BF93EF93FF93CB
:1005200087EC93E00E94EA00FF91EF91BF91AF91B9
:100530009F918F917F916F915F914F913F912F91FB
:100540000F900FBE0F901F9018951F920F920FB62D
:100550000F9211242F938F939F93EF93FF93E0912A
:10056000D703F091D8038081E091DD03F091DE03A1
:1005700082FD11C090818091E0038F5F2091E103A3
:10058000821751F0E091E003F0E0E953FC4F958FC2
:100590008093E00301C08081FF91EF919F918F9143
:1005A0002F910F900FBE0F901F90189590E0FC01B7
:1005B000E859FF4F3491FC01E255FF4F2491FC01B3
:1005C000E656FF4FE491EE2309F43BC0332339F1A3
:1005D000333091F038F43130A9F0323001F584B580
:1005E0008F7D12C0373091F03830A1F03430B9F43B
:1005F000809180008F7D03C0809180008F778093F1
:1006000080000DC084B58F7784BD09C08091B00093
:100610008F7703C08091B0008F7D8093B000F0E0B1
:10062000EE0FFF1FE458FF4FA591B4918FB7F894D8
:10063000EC91611103C020952E2301C02E2B2C9329
:100640008FBF08953FB7F8948091F6029091F7021A
:10065000A091F802B091F90226B5A89B05C02F3FE2
:1006600019F00196A11DB11D3FBFBA2FA92F982FD8
:100670008827820F911DA11DB11DBC01CD0142E053
:10068000660F771F881F991F4A95D1F708958F929B
:100690009F92AF92BF92CF92DF92EF92FF926B0147
:1006A0007C010E9422034B015C01C114D104E104CE
:1006B000F104F1F00E942203DC01CB0188199909B1
:1006C000AA09BB09883E9340A105B10570F321E05A
:1006D000C21AD108E108F10888EE880E83E0981E5E
:1006E000A11CB11CC114D104E104F10419F7DDCF40
:1006F000FF90EF90DF90CF90BF90AF909F908F9042
:100700000895DF92EF92FF920F931F93CF93DF93A1
:1007100002E010E087EC93E00E94D900892B09F4F5
:10072000DFC08091680390916903892B09F0D8C0DC
:10073000C0E0D0E02FB7F8948091F2029091F302DC
:10074000A091F402B091F5022FBF8093CF03909354
:10075000D003A093D103B093D203E091C703F091EB
:10076000C8030680F781E02D87EC93E0099597FD9B
:100770000BC0FE01E85CFE4F2081022E000C330B03
:100780008217930731F559C02FB7F8948091F20280
:100790009091F302A091F402B091F5022FBF409125
:1007A000CF035091D0036091D1037091D203841B89
:1007B000950BA60BB70B4091CB035091CC036091E6
:1007C000CD037091CE0384179507A607B70728F2CB
:1007D000A1CF209709F4AECF69E371E09E012150CB
:1007E0003109F901E85CFE4F4081042E000C550BE5
:1007F00084179507F1F42115310509F49BCFE8E33F
:10080000F1E040E050E0D1907B01E40EF51ED7010D
:10081000FC90DF1441F04217530709F48BCF6F5F50
:100820007F4FE901DBCF4F5F5F4F4217530758F30C
:10083000F2CF2115310599F77BCF2196C430D10530
:1008400009F078CFD0930101C093000161E08DE001
:100850000E94D60268EC70E080E090E00E944703BE
:1008600060E08DE00E94D60268EC70E080E090E0ED
:100870000E94470387EC93E00E94D900892B09F47A
:1008800049CF87EC93E00E94B80020916803309133
:100890006903232B79F42091000130910101A90112
:1008A0004F5F5F4F5093010140930001F901E25007
:1008B000FD4F8083823229F410936903009368030B
:1008C000D9CF833229F41092690310926803D2CFF2
:1008D0008A3281F681E090E0909369038093680307
:1008E000DF91CF911F910F91FF90EF90DF900895CE
:1008F0000E94E00081110C94810308951F920F92D1
:100900000FB60F9211242F933F938F939F93AF9322
:10091000BF938091F2029091F302A091F402B09102
:10092000F5023091F10223E0230F2D3720F40196D8
:10093000A11DB11D05C026E8230F0296A11DB11D02
:100940002093F1028093F2029093F302A093F402B9
:10095000B093F5028091F6029091F702A091F8020F
:10096000B091F9020196A11DB11D8093F6029093FA
:10097000F702A093F802B093F902BF91AF919F9153
:100980008F913F912F910F900FBE0F901F90189550
:100990001F920F920FB60F9211242F933F934F93F4
:1009A0005F936F937F938F939F93AF93BF93EF93D7
:1009B000FF938091B900887F803609F49CC068F568
:1009C000883209F45BC090F4803109F454C038F4E3
:1009D000882309F4F6C0883009F44DC0F6C0883188
:1009E00009F44CC0803209F45DC0EFC0803409F4D2
:1009F00068C048F4803309F455C0883309F0E5C075
:100A00008093CA02D8C0803509F44FC0883509F4F4
:100A10005DC0883409F0D9C0D6C0883909F4C7C090
:100A2000A8F4883709F467C038F4883609F463C03D
:100A3000803709F460C0C9C0883809F4B8C080396B
:100A400009F45FC0803809F0C0C05BC0803B09F486
:100A500086C038F4803A09F466C0883A09F47FC049
:100A6000B4C0803C09F4A7C0883C09F4A4C0883B0A
:100A700009F48AC0AAC08091F00210C09091EF02E0
:100A80008091EE02981770F5E091EF0281E08E0FF1
:100A90008093EF02F0E0E253FD4F80818093BB0032
:100AA00085EC86C08093CA028EC0E091EF0281E09F
:100AB0008E0F8093EF028091BB00F0E0E253FD4F78
:100AC00080839091EF028091EE026EC0E091EF0280
:100AD00081E08E0F8093EF028091BB00F0E0E25343
:100AE000FD4F80838091CD0281116DC081E08093A4
:100AF000CC0284EA61C083E08093CB021092C902E9
:100B0000CFCF8091C902803208F051C0E091C90274
:100B100081E08E0F8093C9028091BB00F0E0E75521
:100B2000FD4F8083BDCF85EC8093BC001092CB023B
:100B30008091C902803230F4E091C902F0E0E755BB
:100B4000FD4F10826091C90270E0E091A702F09120
:100B5000A80289EA92E009951092C90236C084E0A1
:100B60008093CB021092A6021092A502E091A302FC
:100B7000F091A40209958091A502811105C081E040
:100B80008093A50210928302E091A60281E08E0F6D
:100B90008093A602F0E0ED57FD4F80818093BB006B
:100BA0009091A6028091A502981708F479CF85E864
:100BB0008093BC000AC085EC8093BC001092CB02ED
:100BC00004C01092CA020E947401FF91EF91BF917C
:100BD000AF919F918F917F916F915F914F913F91D5
:100BE0002F910F900FBE0F901F9018951F920F928C
:100BF0000FB60F9211242F933F934F935F936F93F0
:100C00007F938F939F93AF93BF93EF93FF93E09165
:100C10008002F09181020995FF91EF91BF91AF9110
:100C20009F918F917F916F915F914F913F912F9104
:100C30000F900FBE0F901F9018951F920F920FB636
:100C40000F9211242F933F934F935F936F937F9352
:100C50008F939F93AF93BF93EF93FF93E091FC0229
:100C6000F091FD02309709F451C0968DA685B785A5
:100C7000858591FF04C09C91892329F447C09C91EC
:100C8000892309F043C0A389B4899C918589809503
:100C900089238C93868997890197F1F7608D718DEF
:100CA000A685B785558538E020E0CB010197F1F79F
:100CB000822F90E095958795282F4C91452309F038
:100CC0002068315091F7868D81FD20958091FB023F
:100CD00090E001968F7399273091FA02381749F006
:100CE000A091FB02B0E0A05CBD4F2C938093FB026F
:100CF00003C0868D8160868F828D938D0197F1F779
:100D0000A389B4899C918589892B8C93FF91EF915C
:100D1000BF91AF919F918F917F916F915F914F9113
:100D20003F912F910F900FBE0F901F901895E0915B
:100D3000FC02F091FD02E817F90769F4A389B48970
:100D40009C918589809589238C931092FD02109245
:100D5000FC0281E0089580E008950C9435180C940D
:100D60002D18CF92DF92EF92FF920F931F93CF93A4
:100D70006B017C01CB010E94AF06182FC6010196C2
:100D80000E94AF06C82FC60102960E94AF06082F28
:100D9000C60103960E94AF064C2F50E060E070E061
:100DA000762F652F542F4427410F511D611D711D52
:100DB00010E020E030E0980111270027400F511F7C
:100DC000621F731F90E0A0E0B0E0B82FAA27992718
:100DD00088278A019B01080F191F2A1F3B1FC90181
:100DE000B801CF911F910F91FF90EF90DF90CF90BE
:100DF00008958DE391E00E94CC0768EC70E080E0FC
:100E000090E00E9447036DE087EC93E00E940B01A5
:100E100064EF71E080E090E00E9447038FE491E08E
:100E20000E94CC0768EC70E080E090E00E944703ED
:100E30006DE087EC93E00E940B0164EF71E080E0CD
:100E400090E00E94470368EC70E080E090E00E9430
:100E5000B106709367036093660364E670E080E018
:100E600090E00E94B10660936203709363038093E5
:100E70006403909365030C94CE07CF92DF92EF92B8
:100E8000FF92CF93DF93EC016A017B01642F0E94F4
:100E9000AD0699278F2D7E2D6D2DCE0101960E94D6
:100EA000AD06B70188279927CE0102960E94AD06AC
:100EB0006F2D772788279927CE010396DF91CF9151
:100EC000FF90EF90DF90CF900C94AD060E94A31698
:100ED0000F931F93CF93DF93EC0188819981009743
:100EE00029F02A813B812617370788F48B016F5F31
:100EF0007F4F0E94D915009761F0998388831B83E7
:100F00000A832C813D81232B11F4FC01108281E0A6
:100F100001C080E0DF91CF911F910F910895EF9272
:100F2000FF920F931F93CF93DF93EC017B018A0114
:100F3000BA010E9468072881398181110DC02115ED
:100F4000310519F0C9010E944115198218821D82CC
:100F50001C821B821A8206C01D830C83B701C90143
:100F60000E94B816CE01DF91CF911F910F91FF9093
:100F7000EF900895009769F0FC0101900020E9F7D7
:100F80003197AF01481B590BBC0187EC93E00C94DF
:100F90008D0080E090E008950C94BA0740E050E0A6
:100FA0006BE871E083E495E00E948F0783E495E0AD
:100FB0000895E091C703F091C8030190F081E02DFE
:100FC000682F87EC93E009948F929F92AF92BF9223
:100FD0000F931F93CF93DF93CDB7DEB7A1970FB6D3
:100FE000F894DEBF0FBECDBF19A2423008F44AE02C
:100FF0008E010F5D1F4F842E912CA12CB12CA501C9
:1010000094010E943C13E62FB901CA010150110955
:10101000EA3014F4E05D01C0E95CD801EC93232BC5
:10102000242B252B61F7C8010E94BA07A1960FB6A1
:10103000F894DEBF0FBECDBFDF91CF911F910F910E
:10104000BF90AF909F908F9008950F931F93CF9371
:10105000DF9300D0CDB7DEB789831A8200914705B0
:10106000109148050F5F1F4FB80183E495E00E947F
:1010700068078823A1F020914305309144058091B1
:10108000470590914805BE016F5F7F4F820F931F08
:101090000E94B816109348050093470581E00F9011
:1010A0000F90DF91CF911F910F9108958F929F9292
:1010B000AF92BF92CF92DF92EF92FF92CF93DF93E6
:1010C0006B017C019B01AC010E948B14882319F0F9
:1010D00080E392E027C046015701E894B7F82FEF6C
:1010E0003FEF4FE75FE7C501B4010E948B14811108
:1010F0000DC02FEF3FEF4FE75FE7C501B4010E943E
:10110000091718161CF484E392E00CC02FEF3FEF90
:101110004FE75FE4C701B6010E948614181674F405
:1011200088E392E0DF91CF91FF90EF90DF90CF9036
:10113000BF90AF909F908F900C94BA072FEF3FEF26
:101140004FE75FECC701B6010E94091787FDE8CFA2
:1011500020E030E0A901C701B6010E94091787FF0E
:1011600009C08DE20E94D907EC01F7FAF094F7F874
:10117000F09402C0C0E0D0E02AE037ED43EA5BE340
:10118000C701B6010E9479134B015C010E945714FC
:101190006B017C010E940E179B01AC01C501B401DB
:1011A0000E9478134B015C014AE0C701B6010E941E
:1011B000E407C80FD91F8EE292E00E94BA07C80F59
:1011C000D91F20E030E040E251E4C501B4010E94A3
:1011D0006F174B015C010E9457146B01E12CF12C3D
:1011E0004AE0C701B6010E94E407C80FD91FC70132
:1011F000B6010E940E179B01AC01C501B4010E940B
:10120000781320E030E040E251E40E946F170E9422
:10121000571480E090E04AE00E94E4078C0F9D1F85
:10122000DF91CF91FF90EF90DF90CF90BF90AF9084
:101230009F908F9008950F931F93E0913B05F0913D
:101240003C05908180913505892B8083E09137059D
:10125000F0913805908180913505809589238083B0
:101260008BE090E00197F1F7E0913705F0913805B8
:10127000908180913505892B808383E290E00197EE
:10128000F1F7E0913705F0913805908180913505AF
:10129000809589238083E0913B05F0913C05908106
:1012A00080913505809589238083E0913905F091FF
:1012B0003A05908180913605892309F073C00E9418
:1012C000220320913D0530913E05890120E030E068
:1012D0000855194E2F4F3F4FDC01CB01800F911F56
:1012E000A21FB31F80933F0590934005A093410533
:1012F000B0934205E0913905F0913A0590818091D3
:101300003605892381F40E94220300913F05109144
:10131000400520914105309142050617170728071F
:10132000390740F73FC00E94220320913D053091CC
:101330003E05DC01CB01820F931FA11DB11D8093DF
:101340003F0590934005A0934105B0934205E0917D
:101350003905F0913A05908180913605892381F015
:101360000E94220300913F05109140052091410504
:1013700030914205061717072807390740F712C0B2
:101380000E94220320913D0530913E0525503109F0
:1013900040913F0550914005241B350BC901860F34
:1013A000971F02C080E090E01F910F910895CF92A7
:1013B000DF92EF92FF921F93CF93DF93209124054A
:1013C000FC014081518180912C053091260590913E
:1013D0002705E32FF92FE80FF11DE80FF11D80819C
:1013E0009181BA01681B790BCB01092E000CAA0B65
:1013F000BB0BC0902D05D0902E05E0902F05F090EE
:1014000030058C0D9D1DAE1DBF1D80932D05909345
:101410002E05A0932F05B093300551834083809112
:101420002C05E0912A05F0912B05E80FF11D808134
:1014300081110EC0215080912C05E0912A05F09178
:101440002B05E80FF11D8081821708F465C055C097
:10145000C0E09FEF980F10912605D0912705E091ED
:101460002C056091280570912905492F50E0DB017A
:10147000A40FB51F3C91A12FBD2FAE0FB11DAE0F14
:10148000B11DE12FFD2FE30FF11DE30FF11D0D90B5
:10149000BC91A02D0190F081E02DAE17BF07CCF5D7
:1014A000FB01E80FF11D3083E0912805F09129053B
:1014B000E40FF51F8081E0912A05F0912B05E80FDC
:1014C000F11D80818F5F808380912C0560912805BC
:1014D00070912905FB01E40FF51F808380912C0595
:1014E000E0912A05F0912B05E80FF11D80818150D4
:1014F0008083892FC1E09111ACCF80912C058F5F43
:1015000080932C059091240589135BC010922C05C3
:1015100058C0C111F2CF8ECF90E030E08217930710
:1015200064F710912605D0912705E0912C05609174
:10153000280570912905AC014F5F5F4FDB01A40FB7
:10154000B51FCC91A12FBD2FAE0FB11DAE0FB11D98
:10155000E12FFD2FEC0FF11DEC0FF11D0D90BC9153
:10156000A02D0190F081E02DEA17FB0734F6FB0176
:10157000E80FF91FC083E0912805F0912905E40FD9
:10158000F51F8081E0912A05F0912B05E80FF11DF0
:1015900080818150808380912C05E0912805F09115
:1015A0002905E40FF51F808380912C05E0912A0521
:1015B000F0912B05E80FF11D80818F5F8083CA01B8
:1015C000ADCF80912505E0912805F0912905E80F20
:1015D000F11D80812091260590912705E22FF92F9A
:1015E000E80FF11DE80FF11D80819181DF91CF910E
:1015F0001F91FF90EF90DF90CF9008958091430569
:10160000909144050E9441158CE291E090934A0527
:101610008093490589E495E00C949706CF93DF9376
:1016200000D000D000D0CDB7DEB7789484B582600A
:1016300084BD84B5816084BD85B5826085BD85B576
:10164000816085BD80916E00816080936E001092F4
:10165000810080918100826080938100809181006F
:101660008160809381008091800081608093800000
:101670008091B10084608093B1008091B00081605E
:101680008093B00080917A00846080937A0080918A
:101690007A00826080937A0080917A0081608093E2
:1016A0007A0080917A00806880937A001092C1005D
:1016B00081E090E00E94AF0690E09093A4038093B5
:1016C000A30368EC70E080E090E00E94B1067093A4
:1016D00067036093660360ED77E080E090E00E942E
:1016E0004703E091D703F091D80382E08083E09133
:1016F000D303F091D4031082E091D503F091D60387
:101700008FEC80831092DF03E091DB03F091DC0328
:1017100086E08083E091D903F091DA0380818061D3
:101720008083E091D903F091DA038081886080831F
:10173000E091D903F091DA03808180688083E091A1
:10174000D903F091DA0380818F7D80831092640544
:101750001092630510926205109261051092600567
:1017600010925F058DE991E0909366058093650581
:1017700090915505963108F057C02DEB30E030932D
:10178000600520935F052BE931E0309362052093DB
:1017900061052CE231E030936405209363052091CC
:1017A0006800983050F031E09E3008F430E081E07D
:1017B00001C0880F3A95EAF701C084E0822B80933C
:1017C0006800983038F09E3040F0963148F020E0C4
:1017D00030E008C02DE630E005C02BE630E002C066
:1017E0002CE630E030935D0520935C05983030F4B2
:1017F00081E001C0880F9A95EAF70EC0292F30E0EA
:101800009E3018F42850310902C02E50310981E071
:1018100001C0880F2A95EAF780935E0580916505DF
:10182000909166050197F1F78091630590916405A9
:10183000892B21F18091FC029091FD0225E08934F1
:101840009207E1F0009711F00E94970680916705DA
:101850008E7F809367051092FB021092FA0289E452
:1018600095E09093FD028093FC02E0915C05F0917D
:101870005D05908180915E05892B808360ED77E026
:1018800080E090E00E94470360ED77E080E090E028
:101890000E94470389E591E00E94CC0768EC70E064
:1018A00080E090E00E9447036DE087EC93E00E94A7
:1018B0000B0164EF71E080E090E00E9447038DE34C
:1018C00091E00E94CC0764EF71E080E090E00E941C
:1018D00047036DE087EC93E00E940B0164EF71E039
:1018E00080E090E00E9447038FE491E00E94CC07E3
:1018F00064EF71E080E090E00E9447036DE087ECC8
:1019000093E00E940B0168EE73E080E090E00E949B
:1019100047038BE28093FE0282E38093FF0283E31E
:101920008093000384E38093010384E090E090932C
:1019300001018093000124E0222E312C39E3832E13
:10194000912CA12CB12C809168039091690301978F
:1019500009F078C3EEEFF2E004E913E0D8018191D9
:101960008D9383E0EC30F807D1F7ADE0B3E09AE671
:10197000692E93E0792EF3018D9181938A3221F0C3
:1019800023E0E239F207C1F7F4E96F16F3E07F06CE
:1019900031F0F30181913F010E94D907F5CF48E072
:1019A00050E06EE571E08AE693E00E94BF16892B55
:1019B00009F04CC10E94F90687E691E00E94CC072D
:1019C000F80181918F010E94D907F3E0023A1F07C5
:1019D000B9F78FE691E00E94CC0768EC70E080E0F8
:1019E00090E00E9447036DE087EC93E00E940B01BA
:1019F00064EF71E080E090E00E94470381E791E0AE
:101A00000E94CC070E941B098C01BC0180E090E081
:101A10000E940E176093BF037093C0038093C103AD
:101A20009093C2031A830983CE0101960E94D709BD
:101A300080912505E0912805F0912905E80FF11D19
:101A400080812091260590912705E22FF92FE80F3C
:101A5000F11DE80FF11D60817181072E000C880BCC
:101A6000990B0E9410176093BB037093BC03809383
:101A7000BD039093BE0320E030E044E652E40E94B0
:101A8000E5136093B7037093B8038093B903909301
:101A9000BA031092C4031092C3034090B70350904E
:101AA000B8036090B9037090BA0320E030E0A90158
:101AB000C301B2010E9409178111BEC00E941B0917
:101AC000BC0180E090E0A50194010E943C13CA0192
:101AD000B9010E940E176093B7037093B803809307
:101AE000B9039093BA038091C3039091C403019604
:101AF0009093C4038093C3030B970CF496C040905B
:101B0000660350906703052C000C66087708C30134
:101B1000B2010E9410172091B7033091B803409191
:101B2000B9035091BA030E9478136B017C01609352
:101B3000B7037093B8038093B9039093BA0360918D
:101B400062037091630380916403909165030E9426
:101B50000E179B01AC01C701B6010E946F170E94CE
:101B600057146093B3037093B4038093B5039093B9
:101B7000B603A30192010E943C13CA01B9010E945D
:101B80000E172B013C016093AF037093B003809359
:101B9000B1039093B20320E030E048EC52E40E949D
:101BA0006F170E9457146093AB037093AC0380933C
:101BB000AD039093AE0328EE33E040E050E00E9486
:101BC0003C13CA01B9010E940E176093A7037093DA
:101BD000A8038093A9039093AA03C301B2010E94B2
:101BE000560880E891E00E94CC0788E891E00E94C6
:101BF000CC076091A7037091A8038091A9039091ED
:101C0000AA030E9456088CE891E00E94CC078EE25D
:101C100092E00E94CC076AE187EC93E00E940B01FE
:101C200064EF71E080E090E0E4C162E370E080E0A6
:101C300090E00E94470331CF20E030E0A901C301CA
:101C4000B2010E94091787FD39CF59CF45E050E016
:101C50006AE971E08AE693E00E94BF16892B29F5B4
:101C6000809170030E942508809171030E942508CD
:101C7000809172030E94250880914305909144054C
:101C8000009719F00E94CD1603C060E070E0CB0110
:101C90007093A6036093A5036336710508F0C0C175
:101CA00080E090E00E94AD06BBC146E050E060EAF3
:101CB00071E08AE693E00E94BF16892B59F500E790
:101CC00013E0F80181918F018A3219F00E942508F2
:101CD000F8CF8091430590914405009729F00E9428
:101CE000CD166B017C0103C0C12CD12C7601D092A2
:101CF000A603C092A5030E94CE07F5EFCF16F1E030
:101D0000DF0608F08DC1A601DD0C660B770B88ECB1
:101D100090E03EC046E050E067EA71E08AE693E07A
:101D20000E94BF16892BD9F500E713E0F8018191D5
:101D30008F018A3219F00E942508F8CF809143055F
:101D400090914405009729F00E94CD16AB01BC018B
:101D500003C040E050E0BA014093B3035093B40392
:101D60006093B5037093B6034B835C836D837E836E
:101D70000E94CE074B815C816D817E81413AF6E8FD
:101D80005F07F1E06F07710508F04AC184E690E053
:101D90000E943D0764E670E080E090E03FC147E0CC
:101DA00050E06EEA71E08AE693E00E94BF16892B4C
:101DB000B9F482E0682E712CF80161918F01C301A2
:101DC0000E94AD0664E170E080E090E00E9447036D
:101DD000FFEF6F1A7F0A20E16216710469F720C1D4
:101DE00049E050E067EB71E08AE693E00E94BF169D
:101DF000892BB1F50E94F90687E691E00E94CC0795
:101E0000F80181918F010E94D907F3E0023A1F0780
:101E1000B9F78FE691E00E94CC0768EC70E080E0B3
:101E200090E00E9447036DE087EC93E00E940B0175
:101E300064EF71E080E090E00E94470381EC91E064
:101E40000E94CC0780E090E00E94AF06682F70E00F
:101E500080E090E04AE00E94E4078CE891E07BC0DB
:101E600049E050E06DEC71E08AE693E00E94BF1615
:101E7000892BA1F50E94F90687E691E00E94CC0724
:101E8000F80181918F010E94D907F3E0023A1F0700
:101E9000B9F78FE691E00E94CC0768EC70E080E033
:101EA00090E00E9447036DE087EC93E00E940B01F5
:101EB00064EF71E080E090E00E94470387ED91E0DD
:101EC0000E94CC0768EC70E080E090E00E94B106D0
:101ED0004AE00E94E40785EE91E03DC049E050E011
:101EE00068EE71E08AE693E00E94BF16892BB1F597
:101EF0000E94F90687E691E00E94CC07F8018191E3
:101F00008F010E94D907F3E0023A1F07B9F78FE665
:101F100091E00E94CC0768EC70E080E090E00E94C5
:101F200047036DE087EC93E00E940B0164EF71E0E2
:101F300080E090E00E94470382EF91E00E94CC078E
:101F400064E670E080E090E00E94B1064AE00E9402
:101F5000E40780E092E00E94CC0742C049E050E0F4
:101F600068E072E08AE693E00E94BF16892B09F0D0
:101F700057C00E94F90687E691E00E94CC07F8015D
:101F800081918F010E94D907F3E0023A1F07B9F748
:101F90008FE691E00E94CC0768EC70E080E090E072
:101FA0000E9447036DE087EC93E00E940B0164EF11
:101FB00071E080E090E00E94470382E192E00E949D
:101FC000CC0702E010E0C8010E94AF06682F87EC42
:101FD00093E00E940B010F5F1F4F0031110599F72D
:101FE0006AE187EC93E00E940B0168EE73E080E009
:101FF00090E00E9447038EE891E00E94CC0764EFD6
:1020000071E080E090E00E9447036DE087EC93E090
:102010000E940B0164EF71E080E090E00E944703B2
:1020200010926903109268031092C6031092C503C0
:10203000309201012092000168EE73E080E090E0B0
:102040000E9447031092C4031092C3030E941B090D
:102050008C01BC0180E090E00E940E176093BF03EA
:102060007093C0038093C1039093C2031A830983C2
:10207000CE0101960E94D70980912505E09128059F
:10208000F0912905E80FF11D80812091260590919E
:102090002705E22FF92FE80FF11DE80FF11D6081F0
:1020A0007181072E000C880B990B0E94101760930A
:1020B000BB037093BC038093BD039093BE0320E0E9
:1020C00030E044E652E40E94E5136093B703709356
:1020D000B8038093B9039093BA0320E030E0A901DC
:1020E0006091B7037091B8038091B9039091BA03DE
:1020F0000E94091718160CF10E941B09BC0180E010
:1021000090E0A50194010E943C13CA01B9010E940C
:102110000E176093B7037093B8038093B90390933D
:10212000BA038091C3039091C40301969093C403B2
:102130008093C30306970CF486C0409066035090CA
:102140006703052C000C66087708C301B2010E94E2
:1021500010172091B7033091B8034091B903509103
:10216000BA030E9478136B017C016093B7037093EC
:10217000B8038093B9039093BA036091620370919E
:10218000630380916403909165030E940E179B0185
:10219000AC01C701B6010E946F170E9457146093EB
:1021A000B3037093B4038093B5039093B603A30174
:1021B00092010E943C13CA01B9010E940E1760935C
:1021C000AF037093B0038093B1039093B20320E008
:1021D00030E048EC52E40E946F170E94571460935D
:1021E000AB037093AC038093AD039093AE0328EEE2
:1021F00033E040E050E00E943C13CA01B9010E9464
:102200000E172B013C016093A7037093A8038093E2
:10221000A9039093AA0380E090E00E94AF0690E0AB
:102220009093A6038093A503BC01990F880B990B8B
:102230000E9410179B01AC01C301B2010E94091753
:10224000181644F46FC062E370E080E090E00E94F2
:10225000470343CF8091A3039091A403892B09F0F6
:1022600061C00E94F90687E691E00E94CC0702E077
:1022700010E0C8010E94AF06682F70E080E090E097
:102280004AE00E94E40764E170E080E090E00E9490
:1022900047030F5F1F4F0031110559F78FE691E09B
:1022A0000E94CC0768EC70E080E090E00E94470359
:1022B0006DE087EC93E00E940B0164EF71E080E039
:1022C00090E00E9447038AE192E00E94CC076AE115
:1022D00087EC93E00E940B0164EF71E080E090E0F6
:1022E0000E94470361E081E090E00E94AD0681E03A
:1022F00090E09093A4038093A3038EE891E00E9462
:10230000CC0764EF71E080E090E00E9447036DE04D
:1023100087EC93E00E940B0164EF71E080E090E0B5
:102320000E9447030E9478040ECBCF93DF93109254
:10233000CA031092C90388EE93E0A0E0B0E0809356
:10234000CB039093CC03A093CD03B093CE032CE0AA
:1023500031E03093C8032093C70325EC30E030937D
:10236000D4032093D30324EC30E03093D60320939E
:10237000D50320EC30E03093D8032093D70321EC31
:1023800030E03093DA032093D90322EC30E030932D
:10239000DC032093DB0326EC30E03093DE03209354
:1023A000DD031092E0031092E1031092E203109219
:1023B000E30310926B0510926A0580936C0590936D
:1023C0006D05A0936E05B0936F052CE131E030935D
:1023D00069052093680510924C0510924B05809377
:1023E0004D0590934E05A0934F05B09350058CE298
:1023F00091E090934A0580934905109260051092F0
:102400005F051092620510926105109264051092AA
:1024100063051092660510926505609167056E7FF1
:102420006D7F609367056695617081E0682789E03C
:102430000E94D602E7EBF0E02491E3EAF0E0849119
:10244000882399F090E0880F991FFC01EA57FF4F0D
:10245000A591B491FC01E458FF4F859194918FB7F9
:10246000F894EC91E22BEC938FBFE7EBF0E0E49172
:10247000E0935905E3EAF0E0E491F0E0EE0FFF1F8E
:10248000E458FF4F8591949190935B0580935A0592
:10249000E6EBF0E02491E2EAF0E084918823C1F0D9
:1024A00090E0880F991FFC01EA57FF4FC591D49126
:1024B000FC01E458FF4FA591B4919FB7F89488812F
:1024C000E22FE0958E2388838C91E823EC939FBFC5
:1024D0008091670581FD04C061E088E00E94D6021A
:1024E00088E080935505E6EBF0E0E491E093560533
:1024F000E2EAF0E0E491F0E0EE0FFF1FE057FF4F5B
:1025000085919491909358058093570510924405B6
:102510001092430510924605109245051092480509
:102520001092470540E050E06BE871E083E495E0ED
:102530000E948F07EAEBF0E0E491E0933505E9EBC8
:10254000F0E0E491E093360586EA90E0FC01249106
:10255000E22FF0E0EE0FFF1FE458FF4F259134917A
:102560003093380520933705E5EAF0E0E491F0E098
:10257000EE0FFF1FE057FF4F2591349130933A053E
:1025800020933905FC018491E82FF0E0EE0FFF1F46
:10259000EA57FF4F8591949190933C0580933B05BA
:1025A0008DE89FE690933E0580933D058FE18093F3
:1025B0002405CFE0C093250562E070E08FE190E054
:1025C0000E949014909327058093260561E070E0A7
:1025D0008FE190E00E949014909329058093280544
:1025E00061E070E08FE190E00E94901490932B05E1
:1025F00080932A05C0932C0510922D0510922E056C
:1026000010922F051092300520E0809124052817A4
:10261000E0F4822F90E0E0912805F0912905E80F81
:10262000F91F2083E0912A05F0912B05E80FF91F8F
:102630002083880F991FE0912605F0912705E80F68
:10264000F91F118210822F5FE0CFDF91CF910895A3
:1026500097FB072E16F4009407D077FD09D00E944F
:102660005E1307FC05D03EF4909581959F4F089529
:10267000709561957F4F0895A1E21A2EAA1BBB1B8E
:10268000FD010DC0AA1FBB1FEE1FFF1FA217B3073E
:10269000E407F50720F0A21BB30BE40BF50B661F54
:1026A000771F881F991F1A9469F760957095809518
:1026B00090959B01AC01BD01CF010895AA1BBB1BE6
:1026C00051E107C0AA1FBB1FA617B70710F0A61B32
:1026D000B70B881F991F5A95A9F780959095BC0153
:1026E000CD010895EE0FFF1F0590F491E02D0994A0
:1026F0005058BB27AA270E9490130C94F3170E94EE
:10270000E51738F00E94EC1720F039F49F3F19F4D8
:1027100026F40C94E2170EF4E095E7FB0C94DC171A
:10272000E92F0E94041858F3BA1762077307840749
:10273000950720F079F4A6F50C9426180EF4E09590
:102740000B2EBA2FA02D0B01B90190010C01CA016B
:10275000A0011124FF27591B99F0593F50F4503E16
:1027600068F11A16F040A22F232F342F4427585F08
:10277000F3CF469537952795A795F0405395C9F720
:102780007EF41F16BA0B620B730B840BBAF09150D8
:10279000A1F0FF0FBB1F661F771F881FC2F70EC077
:1027A000BA0F621F731F841F48F48795779567954A
:1027B000B795F7959E3F08F0B0CF9395880F08F036
:1027C0009927EE0F9795879508950E94F9130C9419
:1027D000F3170E94EC1758F00E94E51740F029F417
:1027E0005F3F29F00C94DC1751110C9427180C94BE
:1027F000E2170E94041868F39923B1F3552391F36B
:10280000951B550BBB27AA2762177307840738F05F
:102810009F5F5F4F220F331F441FAA1FA9F335D0BC
:102820000E2E3AF0E0E832D091505040E695001C70
:10283000CAF72BD0FE2F29D0660F771F881FBB1F2A
:10284000261737074807AB07B0E809F0BB0B802D08
:10285000BF01FF2793585F4F3AF09E3F510578F034
:102860000C94DC170C9427185F3FE4F3983ED4F3E4
:10287000869577956795B795F7959F5FC9F7880F08
:10288000911D9695879597F90895E1E0660F771F5A
:10289000881FBB1F621773078407BA0720F0621BEB
:1028A000730B840BBA0BEE1F88F7E09508950E9416
:1028B0000C1888F09F5798F0B92F9927B751B0F0AE
:1028C000E1F0660F771F881F991F1AF0BA95C9F7B4
:1028D00014C0B13091F00E942618B1E008950C9414
:1028E0002618672F782F8827B85F39F0B93FCCF3C7
:1028F000869577956795B395D9F73EF49095809531
:10290000709561957F4F8F4F9F4F08950E944B1791
:1029100008F48FEF08950E944B17880B990B0895C8
:102920000F931F93CF93DF93869F8001879F100D96
:10293000969F100D1124C8010E94AC14EC01009761
:1029400029F0A80160E070E00E94B116CE01DF918D
:10295000CF911F910F910895CF93DF93823091050E
:1029600010F482E090E0E0917605F091770520E0A8
:1029700030E0C0E0D0E0309711F14081518148173C
:102980005907C0F04817590761F482819381209755
:1029900019F09B838A832BC09093770580937605EB
:1029A00026C02115310519F04217530718F49A0172
:1029B000BE01DF01EF010280F381E02DDCCF2115A4
:1029C000310509F1281B390B2430310590F412969A
:1029D0008D919C9113976115710521F0FB019383F3
:1029E000828304C09093770580937605FD0132962B
:1029F00044C0FD01E20FF31F8193919322503109EE
:102A00002D933C933AC02091740530917505232B8A
:102A100041F4209104013091050130937505209314
:102A2000740520910201309103012115310541F413
:102A30002DB73EB74091060150910701241B350B7D
:102A4000E0917405F0917505E217F307A0F42E1BD1
:102A50003F0B2817390778F0AC014E5F5F4F241702
:102A6000350748F04E0F5F1F50937505409374056E
:102A70008193919302C0E0E0F0E0CF01DF91CF912C
:102A800008950F931F93CF93DF93009709F48CC0A1
:102A9000FC0132971382128200917605109177051E
:102AA0000115110581F420813181820F931F20913E
:102AB0007405309175052817390779F5F093750578
:102AC000E093740571C0D80140E050E0AE17BF0735
:102AD00050F412962D913C911397AD0121153105BB
:102AE00009F1D901F3CF9D01DA013383228360819B
:102AF0007181860F971F8217930769F4EC01288173
:102B00003981260F371F2E5F3F4F318320838A8103
:102B10009B8193838283452B29F4F0937705E0937F
:102B2000760542C01396FC93EE931297ED014991FE
:102B300059919E01240F351FE217F30771F480812C
:102B40009181840F951F029611969C938E9382819A
:102B5000938113969C938E931297E0E0F0E0D80156
:102B600012968D919C911397009719F0F8018C01A2
:102B7000F6CF8D919C9198012E5F3F4F820F931F4E
:102B800020917405309175052817390769F430973D
:102B900029F4109277051092760502C013821282F2
:102BA0001093750500937405DF91CF911F910F91DC
:102BB0000895A0E0B0E0EFEDF5E10C944718EC01CA
:102BC000009721F4CB010E94AC14B8C0FC01E60FC1
:102BD000F71F9C0122503109E217F30708F4ACC03B
:102BE000D9010D911C91119706171707B0F0053008
:102BF000110508F49FC0C80104978617970708F4C9
:102C000099C002501109061B170B019311936D9384
:102C10007C93CF010E9441158DC05B01A01AB10ABF
:102C20004C01800E911EA0917605B091770540E091
:102C300050E0E12CF12C109709F44AC0A815B90511
:102C4000D1F56D907C901197630182E0C80ED11C84
:102C5000CA14DB0480F1A3014A195B096A0182E00E
:102C6000C80ED11C1296BC9012971396AC91B5E089
:102C7000CB16D10440F0B282A38351834083D901A3
:102C80006D937C930AC00E5F1F4FC301800F911F8D
:102C9000F90191838083EB2DFA2FE114F10431F0D7
:102CA000D7011396FC93EE93129744C0F0937705E7
:102CB000E09376053FC08D919C9111974817590775
:102CC00008F4AC017D0112960D90BC91A02DB3CFFC
:102CD000809174059091750588159905E1F4461762
:102CE0005707C8F48091020190910301009741F4C5
:102CF0008DB79EB74091060150910701841B950B3B
:102D0000E817F907C8F4F0937505E0937405F90125
:102D1000718360830FC0CB010E94AC147C010097CB
:102D200059F0A801BE010E94A816CE010E944115CB
:102D3000C70104C0CE0102C080E090E0CDB7DEB78D
:102D4000EEE00C94631881E090E0F8940C947A180B
:102D5000FB01DC0102C001900D9241505040D8F7B8
:102D60000895DC0101C06D9341505040E0F7089593
:102D7000FB01DC0101900D920020E1F70895FB01B9
:102D8000DC014150504030F08D910190801919F4D0
:102D90000020B9F7881B990B08951F93FC01992710
:102DA0008827BC01E89411911032E9F3193010F032
:102DB0001E30C8F31B3251F01D3249F4689406C02E
:102DC0000E94F416610F711D811D911D1191105308
:102DD0001A30B0F33EF490958095709561957F4FD1
:102DE0008F4F9F4F1F910895592F482F372F262F10
:102DF000660F771F881F991F660F771F881F991FFF
:102E0000620F731F841F951F660F771F881F991FFE
:102E100008950E944B1708F481E00895E89409C0D2
:102E200097FB3EF490958095709561957F4F8F4FFD
:102E30009F4F9923A9F0F92F96E9BB279395F69513
:102E4000879577956795B795F111F8CFFAF4BB0F91
:102E500011F460FF1BC06F5F7F4F8F4F9F4F16C0F5
:102E6000882311F096E911C0772321F09EE8872F7F
:102E7000762F05C0662371F096E8862F70E060E03B
:102E80002AF09A95660F771F881FDAF7880F9695B4
:102E9000879597F90895990F0008550FAA0BE0E858
:102EA000FEEF16161706E807F907C0F0121613060C
:102EB000E407F50798F0621B730B840B950B39F44C
:102EC0000A2661F0232B242B252B21F408950A26B2
:102ED00009F4A140A6958FEF811D811D08950E94E0
:102EE00082170C94F3170E94E51738F00E94EC1734
:102EF00020F0952311F00C94DC170C94E2171124A8
:102F00000C9427180E94041870F3959FC1F3950F35
:102F100050E0551F629FF001729FBB27F00DB11D5D
:102F2000639FAA27F00DB11DAA1F649F6627B00DED
:102F3000A11D661F829F2227B00DA11D621F739FD6
:102F4000B00DA11D621F839FA00D611D221F749FE4
:102F50003327A00D611D231F849F600D211D822F2B
:102F6000762F6A2F11249F5750409AF0F1F0882352
:102F70004AF0EE0FFF1FBB1F661F771F881F91507F
:102F80005040A9F79E3F510580F00C94DC170C943B
:102F900027185F3FE4F3983ED4F3869577956795BD
:102FA000B795F795E7959F5FC1F7FE2B880F911DA9
:102FB0009695879597F9089597F99F6780E870E04F
:102FC00060E008959FEF80EC089500240A9416169F
:102FD000170618060906089500240A941216130607
:102FE000140605060895092E0394000C11F4882395
:102FF00052F0BB0F40F4BF2B11F460FF04C06F5FB1
:103000007F4F8F4F9F4F089557FD9058440F551F86
:1030100059F05F3F71F04795880F97FB991F61F05A
:103020009F3F79F087950895121613061406551FD1
:10303000F2CF4695F1DF08C0161617061806991F3D
:10304000F1CF86957105610508940895E894BB2732
:1030500066277727CB0197F90895F999FECF92BD9E
:1030600081BDF89A992780B50895262FF999FECF4A
:103070001FBA92BD81BD20BD0FB6F894FA9AF99A95
:103080000FBE019608952F923F924F925F926F92DA
:103090007F928F929F92AF92BF92CF92DF92EF92E8
:1030A000FF920F931F93CF93DF93CDB7DEB7CA1B69
:1030B000DB0B0FB6F894DEBF0FBECDBF09942A8894
:1030C000398848885F846E847D848C849B84AA843C
:1030D000B984C884DF80EE80FD800C811B81AA81C9
:1030E000B981CE0FD11D0FB6F894DEBF0FBECDBF94
:1030F000ED01089510E0C2E6D0E004C0FE010E9498
:0E31000072132196C336D107C9F7F894FFCF9A
:10310E000400000078058000000000000B018D0017
:10311E00D900B800CB00520100000000C801B40174
:10312E00AD01AA01A701A60100000000F2018D0069
:10313E0046025E02D901F1012B3233340041542B89
:10314E00434E4D493D312C322C302C302C30004129
:10315E00542B434D47463D31004154453000442EDB
:10316E006C6576656C2A0041542B434D47533D22C6
:10317E000044494553454C204C4556454C3A200099
:10318E00204C6974657273002C2020002500415478
:10319E002B434D47443D312C3400442E736574004F
:1031AE00442E5473657400442E4C73657400442E83
:1031BE0041646D696E2A00442E5669657754482A1B
:1031CE00005448524553484F4C443A2000442E5622
:1031DE00696577544B2A0054414E4B204845494768
:1031EE0048543A2000434D00442E56696577544C9E
:1031FE002A0054414E4B204C49544552533A20001C
:10320E00204C495445525300442E5669657741640B
:10321E002A0041444D494E3A2000504C45415345F9
:10322E0020524546494C4C2044494553454C2E00AE
:0C323E006E616E00696E66006F766600BF
:00000001FF
